{
  "abi": [
    {
      "anonymous": false,
      "inputs": [
        {
          "indexed": false,
          "internalType": "address",
          "name": "recipient",
          "type": "address"
        },
        {
          "indexed": false,
          "internalType": "uint256",
          "name": "tokenid",
          "type": "uint256"
        }
      ],
      "name": "addRecipient",
      "type": "event"
    },
    {
      "anonymous": false,
      "inputs": [
        {
          "indexed": false,
          "internalType": "address",
          "name": "owner",
          "type": "address"
        },
        {
          "indexed": false,
          "internalType": "uint256",
          "name": "tokenId",
          "type": "uint256"
        }
      ],
      "name": "createDeposit",
      "type": "event"
    },
    {
      "inputs": [
        {
          "internalType": "uint256",
          "name": "tokenId",
          "type": "uint256"
        }
      ],
      "name": "collectAllFees",
      "outputs": [
        {
          "internalType": "uint256",
          "name": "amount0",
          "type": "uint256"
        },
        {
          "internalType": "uint256",
          "name": "amount1",
          "type": "uint256"
        }
      ],
      "stateMutability": "nonpayable",
      "type": "function"
    },
    {
      "inputs": [
        {
          "internalType": "address",
          "name": "recipient",
          "type": "address"
        },
        {
          "internalType": "uint256",
          "name": "tokenId",
          "type": "uint256"
        }
      ],
      "name": "deposit",
      "outputs": [],
      "stateMutability": "nonpayable",
      "type": "function"
    },
    {
      "inputs": [
        {
          "internalType": "uint256",
          "name": "",
          "type": "uint256"
        }
      ],
      "name": "deposits",
      "outputs": [
        {
          "internalType": "address",
          "name": "owner",
          "type": "address"
        },
        {
          "internalType": "address",
          "name": "recipient",
          "type": "address"
        },
        {
          "internalType": "uint128",
          "name": "liquidity",
          "type": "uint128"
        },
        {
          "internalType": "address",
          "name": "token0",
          "type": "address"
        },
        {
          "internalType": "address",
          "name": "token1",
          "type": "address"
        }
      ],
      "stateMutability": "view",
      "type": "function"
    },
    {
      "inputs": [],
      "name": "nonfungiblePositionManager",
      "outputs": [
        {
          "internalType": "contract INonfungiblePositionManager",
          "name": "",
          "type": "address"
        }
      ],
      "stateMutability": "view",
      "type": "function"
    },
    {
      "inputs": [
        {
          "internalType": "address",
          "name": "operator",
          "type": "address"
        },
        {
          "internalType": "address",
          "name": "",
          "type": "address"
        },
        {
          "internalType": "uint256",
          "name": "tokenId",
          "type": "uint256"
        },
        {
          "internalType": "bytes",
          "name": "",
          "type": "bytes"
        }
      ],
      "name": "onERC721Received",
      "outputs": [
        {
          "internalType": "bytes4",
          "name": "",
          "type": "bytes4"
        }
      ],
      "stateMutability": "nonpayable",
      "type": "function"
    },
    {
      "inputs": [
        {
          "internalType": "uint256",
          "name": "tokenId",
          "type": "uint256"
        }
      ],
      "name": "retrieveNFT",
      "outputs": [],
      "stateMutability": "nonpayable",
      "type": "function"
    }
  ],
  "bytecode": "608060405234801561001057600080fd5b50610c0d806100206000396000f3fe608060405234801561001057600080fd5b50600436106100625760003560e01c80630a1d7c5f14610067578063150b7a021461007c57806346ce96dd146100a557806347e7ef24146100c6578063b02c43d0146100d9578063b44a2722146100fd575b600080fd5b61007a61007536600461091d565b610112565b005b61008f61008a366004610858565b610210565b60405161009c9190610aaf565b60405180910390f35b6100b86100b336600461091d565b610261565b60405161009c929190610bb1565b61007a6100d43660046108f2565b610329565b6100ec6100e736600461091d565b6103f0565b60405161009c959493929190610a5b565b610105610438565b60405161009c9190610ac4565b6000818152602081905260409020546001600160a01b031633146101515760405162461bcd60e51b815260040161014890610b0f565b60405180910390fd5b604051632142170760e11b815273c36442b4a4522e871399cd717abdd847ab11fe88906342842e0e9061018c90309033908690600401610a37565b600060405180830381600087803b1580156101a657600080fd5b505af11580156101ba573d6000803e3d6000fd5b50505060009182525060208190526040902080546001600160a01b03199081168255600182018054821690556002820180546001600160801b031916905560038201805482169055600490910180549091169055565b60003373c36442b4a4522e871399cd717abdd847ab11fe88146102455760405162461bcd60e51b815260040161014890610b36565b61024f8685610450565b50630a85bd0160e11b95945050505050565b604080516080810182528281523060208201526001600160801b038183018190526060820152905163fc6f786560e01b8152600091829173c36442b4a4522e871399cd717abdd847ab11fe889063fc6f7865906102c2908490600401610b65565b6040805180830381600087803b1580156102db57600080fd5b505af11580156102ef573d6000803e3d6000fd5b505050506040513d601f19601f820116820180604052508101906103139190610935565b90935091506103238484846105e5565b50915091565b6040516331a9108f60e11b8152339073c36442b4a4522e871399cd717abdd847ab11fe8890636352211e90610362908590600401610ba8565b60206040518083038186803b15801561037a57600080fd5b505afa15801561038e573d6000803e3d6000fd5b505050506040513d601f19601f820116820180604052508101906103b29190610835565b6001600160a01b0316146103d85760405162461bcd60e51b815260040161014890610ad8565b6103e23382610450565b6103ec8282610631565b5050565b600060208190529081526040902080546001820154600283015460038401546004909401546001600160a01b0393841694928416936001600160801b03909216928216911685565b73c36442b4a4522e871399cd717abdd847ab11fe8881565b60405163133f757160e31b81526000908190819073c36442b4a4522e871399cd717abdd847ab11fe88906399fbab889061048e908790600401610ba8565b6101806040518083038186803b1580156104a757600080fd5b505afa1580156104bb573d6000803e3d6000fd5b505050506040513d601f19601f820116820180604052508101906104df9190610958565b5050505097505050509450945050507f442e501d827074336675c14a01c2c81c01219206aead308f594a84b95d1cefb7858560405161051f929190610a96565b60405180910390a16040805160a0810182526001600160a01b039687168152600060208083018281526001600160801b03958616848601908152978a1660608501908152968a166080850190815298835290829052929020905181549088166001600160a01b031991821617825591516001820180549189169184169190911790559351600285018054919093166001600160801b0319909116179091559051600383018054918616918316919091179055915160049091018054919093169116179055565b6000838152602081905260409020600181015460038201546004909201546001600160a01b03918216928216911661061e82848761069b565b61062981848661069b565b505050505050565b7ff798224302fba9a9fe9700bd9d35a5ea2abda151aa74258327ba98167794232b8282604051610662929190610a96565b60405180910390a1600090815260208190526040902060010180546001600160a01b0319166001600160a01b0392909216919091179055565b604080516001600160a01b038481166024830152604480830185905283518084039091018152606490920183526020820180516001600160e01b031663a9059cbb60e01b1781529251825160009485949389169392918291908083835b602083106107175780518252601f1990920191602091820191016106f8565b6001836020036101000a0380198251168184511680821785525050505050509050019150506000604051808303816000865af19150503d8060008114610779576040519150601f19603f3d011682016040523d82523d6000602084013e61077e565b606091505b50915091508180156107ac5750805115806107ac57508080602001905160208110156107a957600080fd5b50515b6107e2576040805162461bcd60e51b815260206004820152600260248201526114d560f21b604482015290519081900360640190fd5b5050505050565b80516107f481610bbf565b919050565b8051600281900b81146107f457600080fd5b80516001600160801b03811681146107f457600080fd5b805162ffffff811681146107f457600080fd5b600060208284031215610846578081fd5b815161085181610bbf565b9392505050565b60008060008060006080868803121561086f578081fd5b853561087a81610bbf565b9450602086013561088a81610bbf565b935060408601359250606086013567ffffffffffffffff808211156108ad578283fd5b818801915088601f8301126108c0578283fd5b8135818111156108ce578384fd5b8960208285010111156108df578384fd5b9699959850939650602001949392505050565b60008060408385031215610904578182fd5b823561090f81610bbf565b946020939093013593505050565b60006020828403121561092e578081fd5b5035919050565b60008060408385031215610947578182fd5b505080516020909101519092909150565b6000806000806000806000806000806000806101808d8f03121561097a578687fd5b8c516bffffffffffffffffffffffff81168114610995578788fd5b9b506109a360208e016107e9565b9a506109b160408e016107e9565b99506109bf60608e016107e9565b98506109cd60808e01610822565b97506109db60a08e016107f9565b96506109e960c08e016107f9565b95506109f760e08e0161080b565b94506101008d015193506101208d01519250610a166101408e0161080b565b9150610a256101608e0161080b565b90509295989b509295989b509295989b565b6001600160a01b039384168152919092166020820152604081019190915260600190565b6001600160a01b03958616815293851660208501526001600160801b0392909216604084015283166060830152909116608082015260a00190565b6001600160a01b03929092168252602082015260400190565b6001600160e01b031991909116815260200190565b6001600160a01b0391909116815260200190565b60208082526018908201527f596f7520646f206e6f74206f776e2074686973204e4654210000000000000000604082015260600190565b6020808252600d908201526c2737ba103a34329037bbb732b960991b604082015260600190565b6020808252601590820152744e6f74206120556e6973776170207633204e46542160581b604082015260600190565b815181526020808301516001600160a01b0316908201526040808301516001600160801b0390811691830191909152606092830151169181019190915260800190565b90815260200190565b918252602082015260400190565b6001600160a01b0381168114610bd457600080fd5b5056fea2646970667358221220cc90e841a8c2a7d19c0b86f69778b2ec3e98de34ae2091347e096ace5efbadf364736f6c63430007060033",
  "bytecodeSha1": "70b1cda41cded426eb187f7371706c67077ba199",
  "compiler": {
    "evm_version": "istanbul",
    "optimizer": {
      "enabled": true,
      "runs": 200
    },
    "version": "0.7.6+commit.7338295f"
  },
  "contractName": "ProvideLiquidity",
  "language": "Solidity",
  "natspec": {
    "kind": "dev",
    "methods": {
      "retrieveNFT(uint256)": {
        "notice": "Transfers the NFT to the owner",
        "params": {
          "tokenId": "The id of the erc721"
        }
      }
    },
    "stateVariables": {
      "deposits": {
        "details": "deposits[tokenId] => Deposit"
      }
    },
    "version": 1
  },
  "opcodes": "PUSH1 0x80 PUSH1 0x40 MSTORE CALLVALUE DUP1 ISZERO PUSH2 0x10 JUMPI PUSH1 0x0 DUP1 REVERT JUMPDEST POP PUSH1 0x4 CALLDATASIZE LT PUSH2 0x62 JUMPI PUSH1 0x0 CALLDATALOAD PUSH1 0xE0 SHR DUP1 PUSH4 0xA1D7C5F EQ PUSH2 0x67 JUMPI DUP1 PUSH4 0x150B7A02 EQ PUSH2 0x7C JUMPI DUP1 PUSH4 0x46CE96DD EQ PUSH2 0xA5 JUMPI DUP1 PUSH4 0x47E7EF24 EQ PUSH2 0xC6 JUMPI DUP1 PUSH4 0xB02C43D0 EQ PUSH2 0xD9 JUMPI DUP1 PUSH4 0xB44A2722 EQ PUSH2 0xFD JUMPI JUMPDEST PUSH1 0x0 DUP1 REVERT JUMPDEST PUSH2 0x7A PUSH2 0x75 CALLDATASIZE PUSH1 0x4 PUSH2 0x91D JUMP JUMPDEST PUSH2 0x112 JUMP JUMPDEST STOP JUMPDEST PUSH2 0x8F PUSH2 0x8A CALLDATASIZE PUSH1 0x4 PUSH2 0x858 JUMP JUMPDEST PUSH2 0x210 JUMP JUMPDEST PUSH1 0x40 MLOAD PUSH2 0x9C SWAP2 SWAP1 PUSH2 0xAAF JUMP JUMPDEST PUSH1 0x40 MLOAD DUP1 SWAP2 SUB SWAP1 RETURN JUMPDEST PUSH2 0xB8 PUSH2 0xB3 CALLDATASIZE PUSH1 0x4 PUSH2 0x91D JUMP JUMPDEST PUSH2 0x261 JUMP JUMPDEST PUSH1 0x40 MLOAD PUSH2 0x9C SWAP3 SWAP2 SWAP1 PUSH2 0xBB1 JUMP JUMPDEST PUSH2 0x7A PUSH2 0xD4 CALLDATASIZE PUSH1 0x4 PUSH2 0x8F2 JUMP JUMPDEST PUSH2 0x329 JUMP JUMPDEST PUSH2 0xEC PUSH2 0xE7 CALLDATASIZE PUSH1 0x4 PUSH2 0x91D JUMP JUMPDEST PUSH2 0x3F0 JUMP JUMPDEST PUSH1 0x40 MLOAD PUSH2 0x9C SWAP6 SWAP5 SWAP4 SWAP3 SWAP2 SWAP1 PUSH2 0xA5B JUMP JUMPDEST PUSH2 0x105 PUSH2 0x438 JUMP JUMPDEST PUSH1 0x40 MLOAD PUSH2 0x9C SWAP2 SWAP1 PUSH2 0xAC4 JUMP JUMPDEST PUSH1 0x0 DUP2 DUP2 MSTORE PUSH1 0x20 DUP2 SWAP1 MSTORE PUSH1 0x40 SWAP1 KECCAK256 SLOAD PUSH1 0x1 PUSH1 0x1 PUSH1 0xA0 SHL SUB AND CALLER EQ PUSH2 0x151 JUMPI PUSH1 0x40 MLOAD PUSH3 0x461BCD PUSH1 0xE5 SHL DUP2 MSTORE PUSH1 0x4 ADD PUSH2 0x148 SWAP1 PUSH2 0xB0F JUMP JUMPDEST PUSH1 0x40 MLOAD DUP1 SWAP2 SUB SWAP1 REVERT JUMPDEST PUSH1 0x40 MLOAD PUSH4 0x21421707 PUSH1 0xE1 SHL DUP2 MSTORE PUSH20 0xC36442B4A4522E871399CD717ABDD847AB11FE88 SWAP1 PUSH4 0x42842E0E SWAP1 PUSH2 0x18C SWAP1 ADDRESS SWAP1 CALLER SWAP1 DUP7 SWAP1 PUSH1 0x4 ADD PUSH2 0xA37 JUMP JUMPDEST PUSH1 0x0 PUSH1 0x40 MLOAD DUP1 DUP4 SUB DUP2 PUSH1 0x0 DUP8 DUP1 EXTCODESIZE ISZERO DUP1 ISZERO PUSH2 0x1A6 JUMPI PUSH1 0x0 DUP1 REVERT JUMPDEST POP GAS CALL ISZERO DUP1 ISZERO PUSH2 0x1BA JUMPI RETURNDATASIZE PUSH1 0x0 DUP1 RETURNDATACOPY RETURNDATASIZE PUSH1 0x0 REVERT JUMPDEST POP POP POP PUSH1 0x0 SWAP2 DUP3 MSTORE POP PUSH1 0x20 DUP2 SWAP1 MSTORE PUSH1 0x40 SWAP1 KECCAK256 DUP1 SLOAD PUSH1 0x1 PUSH1 0x1 PUSH1 0xA0 SHL SUB NOT SWAP1 DUP2 AND DUP3 SSTORE PUSH1 0x1 DUP3 ADD DUP1 SLOAD DUP3 AND SWAP1 SSTORE PUSH1 0x2 DUP3 ADD DUP1 SLOAD PUSH1 0x1 PUSH1 0x1 PUSH1 0x80 SHL SUB NOT AND SWAP1 SSTORE PUSH1 0x3 DUP3 ADD DUP1 SLOAD DUP3 AND SWAP1 SSTORE PUSH1 0x4 SWAP1 SWAP2 ADD DUP1 SLOAD SWAP1 SWAP2 AND SWAP1 SSTORE JUMP JUMPDEST PUSH1 0x0 CALLER PUSH20 0xC36442B4A4522E871399CD717ABDD847AB11FE88 EQ PUSH2 0x245 JUMPI PUSH1 0x40 MLOAD PUSH3 0x461BCD PUSH1 0xE5 SHL DUP2 MSTORE PUSH1 0x4 ADD PUSH2 0x148 SWAP1 PUSH2 0xB36 JUMP JUMPDEST PUSH2 0x24F DUP7 DUP6 PUSH2 0x450 JUMP JUMPDEST POP PUSH4 0xA85BD01 PUSH1 0xE1 SHL SWAP6 SWAP5 POP POP POP POP POP JUMP JUMPDEST PUSH1 0x40 DUP1 MLOAD PUSH1 0x80 DUP2 ADD DUP3 MSTORE DUP3 DUP2 MSTORE ADDRESS PUSH1 0x20 DUP3 ADD MSTORE PUSH1 0x1 PUSH1 0x1 PUSH1 0x80 SHL SUB DUP2 DUP4 ADD DUP2 SWAP1 MSTORE PUSH1 0x60 DUP3 ADD MSTORE SWAP1 MLOAD PUSH4 0xFC6F7865 PUSH1 0xE0 SHL DUP2 MSTORE PUSH1 0x0 SWAP2 DUP3 SWAP2 PUSH20 0xC36442B4A4522E871399CD717ABDD847AB11FE88 SWAP1 PUSH4 0xFC6F7865 SWAP1 PUSH2 0x2C2 SWAP1 DUP5 SWAP1 PUSH1 0x4 ADD PUSH2 0xB65 JUMP JUMPDEST PUSH1 0x40 DUP1 MLOAD DUP1 DUP4 SUB DUP2 PUSH1 0x0 DUP8 DUP1 EXTCODESIZE ISZERO DUP1 ISZERO PUSH2 0x2DB JUMPI PUSH1 0x0 DUP1 REVERT JUMPDEST POP GAS CALL ISZERO DUP1 ISZERO PUSH2 0x2EF JUMPI RETURNDATASIZE PUSH1 0x0 DUP1 RETURNDATACOPY RETURNDATASIZE PUSH1 0x0 REVERT JUMPDEST POP POP POP POP PUSH1 0x40 MLOAD RETURNDATASIZE PUSH1 0x1F NOT PUSH1 0x1F DUP3 ADD AND DUP3 ADD DUP1 PUSH1 0x40 MSTORE POP DUP2 ADD SWAP1 PUSH2 0x313 SWAP2 SWAP1 PUSH2 0x935 JUMP JUMPDEST SWAP1 SWAP4 POP SWAP2 POP PUSH2 0x323 DUP5 DUP5 DUP5 PUSH2 0x5E5 JUMP JUMPDEST POP SWAP2 POP SWAP2 JUMP JUMPDEST PUSH1 0x40 MLOAD PUSH4 0x31A9108F PUSH1 0xE1 SHL DUP2 MSTORE CALLER SWAP1 PUSH20 0xC36442B4A4522E871399CD717ABDD847AB11FE88 SWAP1 PUSH4 0x6352211E SWAP1 PUSH2 0x362 SWAP1 DUP6 SWAP1 PUSH1 0x4 ADD PUSH2 0xBA8 JUMP JUMPDEST PUSH1 0x20 PUSH1 0x40 MLOAD DUP1 DUP4 SUB DUP2 DUP7 DUP1 EXTCODESIZE ISZERO DUP1 ISZERO PUSH2 0x37A JUMPI PUSH1 0x0 DUP1 REVERT JUMPDEST POP GAS STATICCALL ISZERO DUP1 ISZERO PUSH2 0x38E JUMPI RETURNDATASIZE PUSH1 0x0 DUP1 RETURNDATACOPY RETURNDATASIZE PUSH1 0x0 REVERT JUMPDEST POP POP POP POP PUSH1 0x40 MLOAD RETURNDATASIZE PUSH1 0x1F NOT PUSH1 0x1F DUP3 ADD AND DUP3 ADD DUP1 PUSH1 0x40 MSTORE POP DUP2 ADD SWAP1 PUSH2 0x3B2 SWAP2 SWAP1 PUSH2 0x835 JUMP JUMPDEST PUSH1 0x1 PUSH1 0x1 PUSH1 0xA0 SHL SUB AND EQ PUSH2 0x3D8 JUMPI PUSH1 0x40 MLOAD PUSH3 0x461BCD PUSH1 0xE5 SHL DUP2 MSTORE PUSH1 0x4 ADD PUSH2 0x148 SWAP1 PUSH2 0xAD8 JUMP JUMPDEST PUSH2 0x3E2 CALLER DUP3 PUSH2 0x450 JUMP JUMPDEST PUSH2 0x3EC DUP3 DUP3 PUSH2 0x631 JUMP JUMPDEST POP POP JUMP JUMPDEST PUSH1 0x0 PUSH1 0x20 DUP2 SWAP1 MSTORE SWAP1 DUP2 MSTORE PUSH1 0x40 SWAP1 KECCAK256 DUP1 SLOAD PUSH1 0x1 DUP3 ADD SLOAD PUSH1 0x2 DUP4 ADD SLOAD PUSH1 0x3 DUP5 ADD SLOAD PUSH1 0x4 SWAP1 SWAP5 ADD SLOAD PUSH1 0x1 PUSH1 0x1 PUSH1 0xA0 SHL SUB SWAP4 DUP5 AND SWAP5 SWAP3 DUP5 AND SWAP4 PUSH1 0x1 PUSH1 0x1 PUSH1 0x80 SHL SUB SWAP1 SWAP3 AND SWAP3 DUP3 AND SWAP2 AND DUP6 JUMP JUMPDEST PUSH20 0xC36442B4A4522E871399CD717ABDD847AB11FE88 DUP2 JUMP JUMPDEST PUSH1 0x40 MLOAD PUSH4 0x133F7571 PUSH1 0xE3 SHL DUP2 MSTORE PUSH1 0x0 SWAP1 DUP2 SWAP1 DUP2 SWAP1 PUSH20 0xC36442B4A4522E871399CD717ABDD847AB11FE88 SWAP1 PUSH4 0x99FBAB88 SWAP1 PUSH2 0x48E SWAP1 DUP8 SWAP1 PUSH1 0x4 ADD PUSH2 0xBA8 JUMP JUMPDEST PUSH2 0x180 PUSH1 0x40 MLOAD DUP1 DUP4 SUB DUP2 DUP7 DUP1 EXTCODESIZE ISZERO DUP1 ISZERO PUSH2 0x4A7 JUMPI PUSH1 0x0 DUP1 REVERT JUMPDEST POP GAS STATICCALL ISZERO DUP1 ISZERO PUSH2 0x4BB JUMPI RETURNDATASIZE PUSH1 0x0 DUP1 RETURNDATACOPY RETURNDATASIZE PUSH1 0x0 REVERT JUMPDEST POP POP POP POP PUSH1 0x40 MLOAD RETURNDATASIZE PUSH1 0x1F NOT PUSH1 0x1F DUP3 ADD AND DUP3 ADD DUP1 PUSH1 0x40 MSTORE POP DUP2 ADD SWAP1 PUSH2 0x4DF SWAP2 SWAP1 PUSH2 0x958 JUMP JUMPDEST POP POP POP POP SWAP8 POP POP POP POP SWAP5 POP SWAP5 POP POP POP PUSH32 0x442E501D827074336675C14A01C2C81C01219206AEAD308F594A84B95D1CEFB7 DUP6 DUP6 PUSH1 0x40 MLOAD PUSH2 0x51F SWAP3 SWAP2 SWAP1 PUSH2 0xA96 JUMP JUMPDEST PUSH1 0x40 MLOAD DUP1 SWAP2 SUB SWAP1 LOG1 PUSH1 0x40 DUP1 MLOAD PUSH1 0xA0 DUP2 ADD DUP3 MSTORE PUSH1 0x1 PUSH1 0x1 PUSH1 0xA0 SHL SUB SWAP7 DUP8 AND DUP2 MSTORE PUSH1 0x0 PUSH1 0x20 DUP1 DUP4 ADD DUP3 DUP2 MSTORE PUSH1 0x1 PUSH1 0x1 PUSH1 0x80 SHL SUB SWAP6 DUP7 AND DUP5 DUP7 ADD SWAP1 DUP2 MSTORE SWAP8 DUP11 AND PUSH1 0x60 DUP6 ADD SWAP1 DUP2 MSTORE SWAP7 DUP11 AND PUSH1 0x80 DUP6 ADD SWAP1 DUP2 MSTORE SWAP9 DUP4 MSTORE SWAP1 DUP3 SWAP1 MSTORE SWAP3 SWAP1 KECCAK256 SWAP1 MLOAD DUP2 SLOAD SWAP1 DUP9 AND PUSH1 0x1 PUSH1 0x1 PUSH1 0xA0 SHL SUB NOT SWAP2 DUP3 AND OR DUP3 SSTORE SWAP2 MLOAD PUSH1 0x1 DUP3 ADD DUP1 SLOAD SWAP2 DUP10 AND SWAP2 DUP5 AND SWAP2 SWAP1 SWAP2 OR SWAP1 SSTORE SWAP4 MLOAD PUSH1 0x2 DUP6 ADD DUP1 SLOAD SWAP2 SWAP1 SWAP4 AND PUSH1 0x1 PUSH1 0x1 PUSH1 0x80 SHL SUB NOT SWAP1 SWAP2 AND OR SWAP1 SWAP2 SSTORE SWAP1 MLOAD PUSH1 0x3 DUP4 ADD DUP1 SLOAD SWAP2 DUP7 AND SWAP2 DUP4 AND SWAP2 SWAP1 SWAP2 OR SWAP1 SSTORE SWAP2 MLOAD PUSH1 0x4 SWAP1 SWAP2 ADD DUP1 SLOAD SWAP2 SWAP1 SWAP4 AND SWAP2 AND OR SWAP1 SSTORE JUMP JUMPDEST PUSH1 0x0 DUP4 DUP2 MSTORE PUSH1 0x20 DUP2 SWAP1 MSTORE PUSH1 0x40 SWAP1 KECCAK256 PUSH1 0x1 DUP2 ADD SLOAD PUSH1 0x3 DUP3 ADD SLOAD PUSH1 0x4 SWAP1 SWAP3 ADD SLOAD PUSH1 0x1 PUSH1 0x1 PUSH1 0xA0 SHL SUB SWAP2 DUP3 AND SWAP3 DUP3 AND SWAP2 AND PUSH2 0x61E DUP3 DUP5 DUP8 PUSH2 0x69B JUMP JUMPDEST PUSH2 0x629 DUP2 DUP5 DUP7 PUSH2 0x69B JUMP JUMPDEST POP POP POP POP POP POP JUMP JUMPDEST PUSH32 0xF798224302FBA9A9FE9700BD9D35A5EA2ABDA151AA74258327BA98167794232B DUP3 DUP3 PUSH1 0x40 MLOAD PUSH2 0x662 SWAP3 SWAP2 SWAP1 PUSH2 0xA96 JUMP JUMPDEST PUSH1 0x40 MLOAD DUP1 SWAP2 SUB SWAP1 LOG1 PUSH1 0x0 SWAP1 DUP2 MSTORE PUSH1 0x20 DUP2 SWAP1 MSTORE PUSH1 0x40 SWAP1 KECCAK256 PUSH1 0x1 ADD DUP1 SLOAD PUSH1 0x1 PUSH1 0x1 PUSH1 0xA0 SHL SUB NOT AND PUSH1 0x1 PUSH1 0x1 PUSH1 0xA0 SHL SUB SWAP3 SWAP1 SWAP3 AND SWAP2 SWAP1 SWAP2 OR SWAP1 SSTORE JUMP JUMPDEST PUSH1 0x40 DUP1 MLOAD PUSH1 0x1 PUSH1 0x1 PUSH1 0xA0 SHL SUB DUP5 DUP2 AND PUSH1 0x24 DUP4 ADD MSTORE PUSH1 0x44 DUP1 DUP4 ADD DUP6 SWAP1 MSTORE DUP4 MLOAD DUP1 DUP5 SUB SWAP1 SWAP2 ADD DUP2 MSTORE PUSH1 0x64 SWAP1 SWAP3 ADD DUP4 MSTORE PUSH1 0x20 DUP3 ADD DUP1 MLOAD PUSH1 0x1 PUSH1 0x1 PUSH1 0xE0 SHL SUB AND PUSH4 0xA9059CBB PUSH1 0xE0 SHL OR DUP2 MSTORE SWAP3 MLOAD DUP3 MLOAD PUSH1 0x0 SWAP5 DUP6 SWAP5 SWAP4 DUP10 AND SWAP4 SWAP3 SWAP2 DUP3 SWAP2 SWAP1 DUP1 DUP4 DUP4 JUMPDEST PUSH1 0x20 DUP4 LT PUSH2 0x717 JUMPI DUP1 MLOAD DUP3 MSTORE PUSH1 0x1F NOT SWAP1 SWAP3 ADD SWAP2 PUSH1 0x20 SWAP2 DUP3 ADD SWAP2 ADD PUSH2 0x6F8 JUMP JUMPDEST PUSH1 0x1 DUP4 PUSH1 0x20 SUB PUSH2 0x100 EXP SUB DUP1 NOT DUP3 MLOAD AND DUP2 DUP5 MLOAD AND DUP1 DUP3 OR DUP6 MSTORE POP POP POP POP POP POP SWAP1 POP ADD SWAP2 POP POP PUSH1 0x0 PUSH1 0x40 MLOAD DUP1 DUP4 SUB DUP2 PUSH1 0x0 DUP7 GAS CALL SWAP2 POP POP RETURNDATASIZE DUP1 PUSH1 0x0 DUP2 EQ PUSH2 0x779 JUMPI PUSH1 0x40 MLOAD SWAP2 POP PUSH1 0x1F NOT PUSH1 0x3F RETURNDATASIZE ADD AND DUP3 ADD PUSH1 0x40 MSTORE RETURNDATASIZE DUP3 MSTORE RETURNDATASIZE PUSH1 0x0 PUSH1 0x20 DUP5 ADD RETURNDATACOPY PUSH2 0x77E JUMP JUMPDEST PUSH1 0x60 SWAP2 POP JUMPDEST POP SWAP2 POP SWAP2 POP DUP2 DUP1 ISZERO PUSH2 0x7AC JUMPI POP DUP1 MLOAD ISZERO DUP1 PUSH2 0x7AC JUMPI POP DUP1 DUP1 PUSH1 0x20 ADD SWAP1 MLOAD PUSH1 0x20 DUP2 LT ISZERO PUSH2 0x7A9 JUMPI PUSH1 0x0 DUP1 REVERT JUMPDEST POP MLOAD JUMPDEST PUSH2 0x7E2 JUMPI PUSH1 0x40 DUP1 MLOAD PUSH3 0x461BCD PUSH1 0xE5 SHL DUP2 MSTORE PUSH1 0x20 PUSH1 0x4 DUP3 ADD MSTORE PUSH1 0x2 PUSH1 0x24 DUP3 ADD MSTORE PUSH2 0x14D5 PUSH1 0xF2 SHL PUSH1 0x44 DUP3 ADD MSTORE SWAP1 MLOAD SWAP1 DUP2 SWAP1 SUB PUSH1 0x64 ADD SWAP1 REVERT JUMPDEST POP POP POP POP POP JUMP JUMPDEST DUP1 MLOAD PUSH2 0x7F4 DUP2 PUSH2 0xBBF JUMP JUMPDEST SWAP2 SWAP1 POP JUMP JUMPDEST DUP1 MLOAD PUSH1 0x2 DUP2 SWAP1 SIGNEXTEND DUP2 EQ PUSH2 0x7F4 JUMPI PUSH1 0x0 DUP1 REVERT JUMPDEST DUP1 MLOAD PUSH1 0x1 PUSH1 0x1 PUSH1 0x80 SHL SUB DUP2 AND DUP2 EQ PUSH2 0x7F4 JUMPI PUSH1 0x0 DUP1 REVERT JUMPDEST DUP1 MLOAD PUSH3 0xFFFFFF DUP2 AND DUP2 EQ PUSH2 0x7F4 JUMPI PUSH1 0x0 DUP1 REVERT JUMPDEST PUSH1 0x0 PUSH1 0x20 DUP3 DUP5 SUB SLT ISZERO PUSH2 0x846 JUMPI DUP1 DUP2 REVERT JUMPDEST DUP2 MLOAD PUSH2 0x851 DUP2 PUSH2 0xBBF JUMP JUMPDEST SWAP4 SWAP3 POP POP POP JUMP JUMPDEST PUSH1 0x0 DUP1 PUSH1 0x0 DUP1 PUSH1 0x0 PUSH1 0x80 DUP7 DUP9 SUB SLT ISZERO PUSH2 0x86F JUMPI DUP1 DUP2 REVERT JUMPDEST DUP6 CALLDATALOAD PUSH2 0x87A DUP2 PUSH2 0xBBF JUMP JUMPDEST SWAP5 POP PUSH1 0x20 DUP7 ADD CALLDATALOAD PUSH2 0x88A DUP2 PUSH2 0xBBF JUMP JUMPDEST SWAP4 POP PUSH1 0x40 DUP7 ADD CALLDATALOAD SWAP3 POP PUSH1 0x60 DUP7 ADD CALLDATALOAD PUSH8 0xFFFFFFFFFFFFFFFF DUP1 DUP3 GT ISZERO PUSH2 0x8AD JUMPI DUP3 DUP4 REVERT JUMPDEST DUP2 DUP9 ADD SWAP2 POP DUP9 PUSH1 0x1F DUP4 ADD SLT PUSH2 0x8C0 JUMPI DUP3 DUP4 REVERT JUMPDEST DUP2 CALLDATALOAD DUP2 DUP2 GT ISZERO PUSH2 0x8CE JUMPI DUP4 DUP5 REVERT JUMPDEST DUP10 PUSH1 0x20 DUP3 DUP6 ADD ADD GT ISZERO PUSH2 0x8DF JUMPI DUP4 DUP5 REVERT JUMPDEST SWAP7 SWAP10 SWAP6 SWAP9 POP SWAP4 SWAP7 POP PUSH1 0x20 ADD SWAP5 SWAP4 SWAP3 POP POP POP JUMP JUMPDEST PUSH1 0x0 DUP1 PUSH1 0x40 DUP4 DUP6 SUB SLT ISZERO PUSH2 0x904 JUMPI DUP2 DUP3 REVERT JUMPDEST DUP3 CALLDATALOAD PUSH2 0x90F DUP2 PUSH2 0xBBF JUMP JUMPDEST SWAP5 PUSH1 0x20 SWAP4 SWAP1 SWAP4 ADD CALLDATALOAD SWAP4 POP POP POP JUMP JUMPDEST PUSH1 0x0 PUSH1 0x20 DUP3 DUP5 SUB SLT ISZERO PUSH2 0x92E JUMPI DUP1 DUP2 REVERT JUMPDEST POP CALLDATALOAD SWAP2 SWAP1 POP JUMP JUMPDEST PUSH1 0x0 DUP1 PUSH1 0x40 DUP4 DUP6 SUB SLT ISZERO PUSH2 0x947 JUMPI DUP2 DUP3 REVERT JUMPDEST POP POP DUP1 MLOAD PUSH1 0x20 SWAP1 SWAP2 ADD MLOAD SWAP1 SWAP3 SWAP1 SWAP2 POP JUMP JUMPDEST PUSH1 0x0 DUP1 PUSH1 0x0 DUP1 PUSH1 0x0 DUP1 PUSH1 0x0 DUP1 PUSH1 0x0 DUP1 PUSH1 0x0 DUP1 PUSH2 0x180 DUP14 DUP16 SUB SLT ISZERO PUSH2 0x97A JUMPI DUP7 DUP8 REVERT JUMPDEST DUP13 MLOAD PUSH12 0xFFFFFFFFFFFFFFFFFFFFFFFF DUP2 AND DUP2 EQ PUSH2 0x995 JUMPI DUP8 DUP9 REVERT JUMPDEST SWAP12 POP PUSH2 0x9A3 PUSH1 0x20 DUP15 ADD PUSH2 0x7E9 JUMP JUMPDEST SWAP11 POP PUSH2 0x9B1 PUSH1 0x40 DUP15 ADD PUSH2 0x7E9 JUMP JUMPDEST SWAP10 POP PUSH2 0x9BF PUSH1 0x60 DUP15 ADD PUSH2 0x7E9 JUMP JUMPDEST SWAP9 POP PUSH2 0x9CD PUSH1 0x80 DUP15 ADD PUSH2 0x822 JUMP JUMPDEST SWAP8 POP PUSH2 0x9DB PUSH1 0xA0 DUP15 ADD PUSH2 0x7F9 JUMP JUMPDEST SWAP7 POP PUSH2 0x9E9 PUSH1 0xC0 DUP15 ADD PUSH2 0x7F9 JUMP JUMPDEST SWAP6 POP PUSH2 0x9F7 PUSH1 0xE0 DUP15 ADD PUSH2 0x80B JUMP JUMPDEST SWAP5 POP PUSH2 0x100 DUP14 ADD MLOAD SWAP4 POP PUSH2 0x120 DUP14 ADD MLOAD SWAP3 POP PUSH2 0xA16 PUSH2 0x140 DUP15 ADD PUSH2 0x80B JUMP JUMPDEST SWAP2 POP PUSH2 0xA25 PUSH2 0x160 DUP15 ADD PUSH2 0x80B JUMP JUMPDEST SWAP1 POP SWAP3 SWAP6 SWAP9 SWAP12 POP SWAP3 SWAP6 SWAP9 SWAP12 POP SWAP3 SWAP6 SWAP9 SWAP12 JUMP JUMPDEST PUSH1 0x1 PUSH1 0x1 PUSH1 0xA0 SHL SUB SWAP4 DUP5 AND DUP2 MSTORE SWAP2 SWAP1 SWAP3 AND PUSH1 0x20 DUP3 ADD MSTORE PUSH1 0x40 DUP2 ADD SWAP2 SWAP1 SWAP2 MSTORE PUSH1 0x60 ADD SWAP1 JUMP JUMPDEST PUSH1 0x1 PUSH1 0x1 PUSH1 0xA0 SHL SUB SWAP6 DUP7 AND DUP2 MSTORE SWAP4 DUP6 AND PUSH1 0x20 DUP6 ADD MSTORE PUSH1 0x1 PUSH1 0x1 PUSH1 0x80 SHL SUB SWAP3 SWAP1 SWAP3 AND PUSH1 0x40 DUP5 ADD MSTORE DUP4 AND PUSH1 0x60 DUP4 ADD MSTORE SWAP1 SWAP2 AND PUSH1 0x80 DUP3 ADD MSTORE PUSH1 0xA0 ADD SWAP1 JUMP JUMPDEST PUSH1 0x1 PUSH1 0x1 PUSH1 0xA0 SHL SUB SWAP3 SWAP1 SWAP3 AND DUP3 MSTORE PUSH1 0x20 DUP3 ADD MSTORE PUSH1 0x40 ADD SWAP1 JUMP JUMPDEST PUSH1 0x1 PUSH1 0x1 PUSH1 0xE0 SHL SUB NOT SWAP2 SWAP1 SWAP2 AND DUP2 MSTORE PUSH1 0x20 ADD SWAP1 JUMP JUMPDEST PUSH1 0x1 PUSH1 0x1 PUSH1 0xA0 SHL SUB SWAP2 SWAP1 SWAP2 AND DUP2 MSTORE PUSH1 0x20 ADD SWAP1 JUMP JUMPDEST PUSH1 0x20 DUP1 DUP3 MSTORE PUSH1 0x18 SWAP1 DUP3 ADD MSTORE PUSH32 0x596F7520646F206E6F74206F776E2074686973204E4654210000000000000000 PUSH1 0x40 DUP3 ADD MSTORE PUSH1 0x60 ADD SWAP1 JUMP JUMPDEST PUSH1 0x20 DUP1 DUP3 MSTORE PUSH1 0xD SWAP1 DUP3 ADD MSTORE PUSH13 0x2737BA103A34329037BBB732B9 PUSH1 0x99 SHL PUSH1 0x40 DUP3 ADD MSTORE PUSH1 0x60 ADD SWAP1 JUMP JUMPDEST PUSH1 0x20 DUP1 DUP3 MSTORE PUSH1 0x15 SWAP1 DUP3 ADD MSTORE PUSH21 0x4E6F74206120556E6973776170207633204E465421 PUSH1 0x58 SHL PUSH1 0x40 DUP3 ADD MSTORE PUSH1 0x60 ADD SWAP1 JUMP JUMPDEST DUP2 MLOAD DUP2 MSTORE PUSH1 0x20 DUP1 DUP4 ADD MLOAD PUSH1 0x1 PUSH1 0x1 PUSH1 0xA0 SHL SUB AND SWAP1 DUP3 ADD MSTORE PUSH1 0x40 DUP1 DUP4 ADD MLOAD PUSH1 0x1 PUSH1 0x1 PUSH1 0x80 SHL SUB SWAP1 DUP2 AND SWAP2 DUP4 ADD SWAP2 SWAP1 SWAP2 MSTORE PUSH1 0x60 SWAP3 DUP4 ADD MLOAD AND SWAP2 DUP2 ADD SWAP2 SWAP1 SWAP2 MSTORE PUSH1 0x80 ADD SWAP1 JUMP JUMPDEST SWAP1 DUP2 MSTORE PUSH1 0x20 ADD SWAP1 JUMP JUMPDEST SWAP2 DUP3 MSTORE PUSH1 0x20 DUP3 ADD MSTORE PUSH1 0x40 ADD SWAP1 JUMP JUMPDEST PUSH1 0x1 PUSH1 0x1 PUSH1 0xA0 SHL SUB DUP2 AND DUP2 EQ PUSH2 0xBD4 JUMPI PUSH1 0x0 DUP1 REVERT JUMPDEST POP JUMP INVALID LOG2 PUSH5 0x6970667358 0x22 SLT KECCAK256 0xCC SWAP1 0xE8 COINBASE 0xA8 0xC2 0xA7 0xD1 SWAP13 SIGNEXTEND DUP7 0xF6 SWAP8 PUSH25 0xB2EC3E98DE34AE2091347E096ACE5EFBADF364736F6C634300 SMOD MOD STOP CALLER ",
  "sha1": "58e48b8badb0dba7bcaf913e5ee99c212211e853",
  "source": "// SPDX-License-Identifier: GPL-2.0-or-later\npragma solidity =0.7.6;\npragma abicoder v2;\n\nimport \"@openzeppelin/contracts/token/ERC721/IERC721Receiver.sol\";\nimport \"@uniswap/v3-periphery/contracts/interfaces/INonfungiblePositionManager.sol\";\nimport \"@uniswap/v3-periphery/contracts/libraries/TransferHelper.sol\";\n\ncontract ProvideLiquidity is IERC721Receiver {\n    // address public constant DAI = 0x6B175474E89094C44Da98b954EedeAC495271d0F;\n    // address public constant USDC = 0xA0b86991c6218b36c1d19D4a2e9Eb0cE3606eB48;\n\n    // uint24 public constant poolFee = 3000;\n    // INonfungiblePositionManager public constant nonfungiblePositionManager =\n    //     INonfungiblePositionManager(0xC36442b4a4522E871399CD717aBDD847Ab11FE88);\n    // address public constant nonfungiblePositionManager =\n    // 0xC36442b4a4522E871399CD717aBDD847Ab11FE88;\n    INonfungiblePositionManager public constant nonfungiblePositionManager =\n        INonfungiblePositionManager(0xC36442b4a4522E871399CD717aBDD847Ab11FE88);\n\n    /// @notice Represents the deposit of an NFT\n    struct Deposit {\n        address owner;\n        address recipient;\n        uint128 liquidity;\n        address token0;\n        address token1;\n    }\n\n    /// @dev deposits[tokenId] => Deposit\n    mapping(uint256 => Deposit) public deposits;\n\n    /// @dev yieldRecipients[tokenId] => yieldRecipient\n\n    // modifier onlyOwner {\n    // \t//is the message sender owner of the contract?\n    //     require(msg.sender == owner);\n\n    //     _;\n    // }\n    event createDeposit(address owner, uint256 tokenId);\n    event addRecipient(address recipient, uint256 tokenid);\n\n    // Implementing `onERC721Received` so this contract can receive custody of erc721 tokens\n    function onERC721Received(\n        address operator,\n        address,\n        uint256 tokenId,\n        bytes calldata\n    ) external override returns (bytes4) {\n        // get position information\n        require(\n            msg.sender == address(nonfungiblePositionManager),\n            \"Not a Uniswap v3 NFT!\"\n        );\n        _createDeposit(operator, tokenId);\n\n        return this.onERC721Received.selector;\n    }\n\n    function _createDeposit(address owner, uint256 tokenId) internal {\n        (\n            ,\n            ,\n            address token0,\n            address token1,\n            ,\n            ,\n            ,\n            uint128 liquidity,\n            ,\n            ,\n            ,\n\n        ) = nonfungiblePositionManager.positions(tokenId);\n        emit createDeposit(owner, tokenId);\n        // set the owner and data for position\n        // operator is msg.sender\n        deposits[tokenId] = Deposit({\n            owner: owner,\n            recipient: address(0),\n            liquidity: liquidity,\n            token0: token0,\n            token1: token1\n        });\n    }\n\n    function _addRecipient(address recipient, uint256 tokenId) internal {\n        emit addRecipient(recipient, tokenId);\n        deposits[tokenId].recipient = recipient;\n    }\n\n    function deposit(address recipient, uint256 tokenId) external {\n        require(\n            nonfungiblePositionManager.ownerOf(tokenId) == msg.sender,\n            \"You do not own this NFT!\"\n        );\n        // require(\n        //     deposits[tokenId].recipient == address(0),\n        //     \"This position has already been deposited!\"\n        // );\n        _createDeposit(msg.sender, tokenId);\n        _addRecipient(recipient, tokenId);\n    }\n\n    // function transferToContract(address user, uint256 _tokenId) public {\n    //     _transfer(user, address(this), _tokenId);\n    //     deposits[tokenId] =\n    // }\n\n    function collectAllFees(uint256 tokenId)\n        external\n        returns (uint256 amount0, uint256 amount1)\n    {\n        // Caller must own the ERC721 position\n        // Call to safeTransfer will trigger `onERC721Received` which must return the selector else transfer will fail\n        // nonfungiblePositionManager.safeTransferFrom(\n        //     msg.sender,\n        //     address(this),\n        //     tokenId\n        // );\n\n        // set amount0Max and amount1Max to uint256.max to collect all fees\n        // alternatively can set recipient to msg.sender and avoid another transaction in `sendToOwner`\n        INonfungiblePositionManager.CollectParams\n            memory params = INonfungiblePositionManager.CollectParams({\n                tokenId: tokenId,\n                recipient: address(this),\n                amount0Max: type(uint128).max,\n                amount1Max: type(uint128).max\n            });\n\n        (amount0, amount1) = nonfungiblePositionManager.collect(params);\n\n        // forward yield to specified address\n        _sendToRecipient(tokenId, amount0, amount1);\n    }\n\n    /// @notice Transfers funds to owner of NFT\n    /// @param tokenId The id of the erc721\n    /// @param amount0 The amount of token0\n    /// @param amount1 The amount of token1\n    function _sendToRecipient(\n        uint256 tokenId,\n        uint256 amount0,\n        uint256 amount1\n    ) private {\n        // get yield recipient\n        address recipient = deposits[tokenId].recipient;\n\n        address token0 = deposits[tokenId].token0;\n        address token1 = deposits[tokenId].token1;\n        // send collected fees to recipient\n        TransferHelper.safeTransfer(token0, recipient, amount0);\n        TransferHelper.safeTransfer(token1, recipient, amount1);\n    }\n\n    /// @notice Transfers the NFT to the owner\n    /// @param tokenId The id of the erc721\n    function retrieveNFT(uint256 tokenId) external {\n        // must be the owner of the NFT\n        require(msg.sender == deposits[tokenId].owner, \"Not the owner\");\n        // transfer ownership to original owner\n        nonfungiblePositionManager.safeTransferFrom(\n            address(this),\n            msg.sender,\n            tokenId\n        );\n        //remove information related to tokenId\n        delete deposits[tokenId];\n    }\n}\n",
  "sourcePath": "contracts/ProvideLiquidity.sol",
  "type": "contract"
}