{
    "contractName": "ProvideLiquidity",
    "abi": [
        {
            "inputs": [
                {
                    "internalType": "contract INonfungiblePositionManager",
                    "name": "_nonfungiblePositionManager",
                    "type": "address"
                }
            ],
            "stateMutability": "nonpayable",
            "type": "constructor"
        },
        {
            "anonymous": false,
            "inputs": [
                {
                    "indexed": false,
                    "internalType": "address",
                    "name": "recipient",
                    "type": "address"
                },
                {
                    "indexed": false,
                    "internalType": "uint256",
                    "name": "tokenid",
                    "type": "uint256"
                }
            ],
            "name": "addRecipient",
            "type": "event"
        },
        {
            "anonymous": false,
            "inputs": [
                {
                    "indexed": false,
                    "internalType": "address",
                    "name": "owner",
                    "type": "address"
                },
                {
                    "indexed": false,
                    "internalType": "uint256",
                    "name": "tokenId",
                    "type": "uint256"
                }
            ],
            "name": "createDeposit",
            "type": "event"
        },
        {
            "inputs": [
                {
                    "internalType": "uint256",
                    "name": "tokenId",
                    "type": "uint256"
                }
            ],
            "name": "collectAllFees",
            "outputs": [
                {
                    "internalType": "uint256",
                    "name": "amount0",
                    "type": "uint256"
                },
                {
                    "internalType": "uint256",
                    "name": "amount1",
                    "type": "uint256"
                }
            ],
            "stateMutability": "nonpayable",
            "type": "function"
        },
        {
            "inputs": [
                {
                    "internalType": "address",
                    "name": "recipient",
                    "type": "address"
                },
                {
                    "internalType": "uint256",
                    "name": "tokenId",
                    "type": "uint256"
                }
            ],
            "name": "deposit",
            "outputs": [],
            "stateMutability": "nonpayable",
            "type": "function"
        },
        {
            "inputs": [
                {
                    "internalType": "uint256",
                    "name": "",
                    "type": "uint256"
                }
            ],
            "name": "deposits",
            "outputs": [
                {
                    "internalType": "address",
                    "name": "owner",
                    "type": "address"
                },
                {
                    "internalType": "address",
                    "name": "recipient",
                    "type": "address"
                },
                {
                    "internalType": "uint128",
                    "name": "liquidity",
                    "type": "uint128"
                },
                {
                    "internalType": "address",
                    "name": "token0",
                    "type": "address"
                },
                {
                    "internalType": "address",
                    "name": "token1",
                    "type": "address"
                }
            ],
            "stateMutability": "view",
            "type": "function"
        },
        {
            "inputs": [
                {
                    "internalType": "address",
                    "name": "operator",
                    "type": "address"
                },
                {
                    "internalType": "address",
                    "name": "",
                    "type": "address"
                },
                {
                    "internalType": "uint256",
                    "name": "tokenId",
                    "type": "uint256"
                },
                {
                    "internalType": "bytes",
                    "name": "",
                    "type": "bytes"
                }
            ],
            "name": "onERC721Received",
            "outputs": [
                {
                    "internalType": "bytes4",
                    "name": "",
                    "type": "bytes4"
                }
            ],
            "stateMutability": "nonpayable",
            "type": "function"
        },
        {
            "inputs": [
                {
                    "internalType": "uint256",
                    "name": "tokenId",
                    "type": "uint256"
                }
            ],
            "name": "retrieveNFT",
            "outputs": [],
            "stateMutability": "nonpayable",
            "type": "function"
        }
    ],
    "bytecode": "608060405234801561001057600080fd5b50604051610b8d380380610b8d83398101604081905261002f91610054565b600080546001600160a01b0319166001600160a01b0392909216919091179055610082565b600060208284031215610065578081fd5b81516001600160a01b038116811461007b578182fd5b9392505050565b610afc806100916000396000f3fe608060405234801561001057600080fd5b50600436106100575760003560e01c80630a1d7c5f1461005c578063150b7a021461007157806346ce96dd1461009a57806347e7ef24146100bb578063b02c43d0146100ce575b600080fd5b61006f61006a366004610857565b6100f2565b005b61008461007f366004610792565b6101e9565b60405161009191906109e9565b60405180910390f35b6100ad6100a8366004610857565b610230565b604051610091929190610aa0565b61006f6100c936600461082c565b6102f2565b6100e16100dc366004610857565b610366565b604051610091959493929190610995565b6000818152600160205260409020546001600160a01b031633146101315760405162461bcd60e51b8152600401610128906109fe565b60405180910390fd5b600054604051632142170760e11b81526001600160a01b03909116906342842e0e9061016590309033908690600401610971565b600060405180830381600087803b15801561017f57600080fd5b505af1158015610193573d6000803e3d6000fd5b50505060009182525060016020819052604090912080546001600160a01b031990811682559181018054831690556002810180546001600160801b03191690556003810180548316905560040180549091169055565b600080546001600160a01b031633146102145760405162461bcd60e51b815260040161012890610a25565b61021e86856103b1565b50630a85bd0160e11b95945050505050565b604080516080810182528281523060208201526001600160801b03818301819052606082015260008054925163fc6f786560e01b815290928392916001600160a01b039091169063fc6f78659061028b908490600401610a54565b6040805180830381600087803b1580156102a457600080fd5b505af11580156102b8573d6000803e3d6000fd5b505050506040513d601f19601f820116820180604052508101906102dc919061086f565b90935091506102ec84848461053f565b50915091565b600054604051632142170760e11b81526001600160a01b03909116906342842e0e9061032690339030908690600401610971565b600060405180830381600087803b15801561034057600080fd5b505af1158015610354573d6000803e3d6000fd5b50505050610362828261058d565b5050565b6001602081905260009182526040909120805491810154600282015460038301546004909301546001600160a01b0394851694928316936001600160801b0390921692918216911685565b6000805460405163133f757160e31b8152829182916001600160a01b03909116906399fbab88906103e6908790600401610a97565b6101806040518083038186803b1580156103ff57600080fd5b505afa158015610413573d6000803e3d6000fd5b505050506040513d601f19601f820116820180604052508101906104379190610892565b5050505097505050509450945050507f442e501d827074336675c14a01c2c81c01219206aead308f594a84b95d1cefb785856040516104779291906109d0565b60405180910390a16040805160a0810182526001600160a01b039687168152600060208083018281526001600160801b03958616848601908152978a1660608501908152968a166080850190815298835260019182905293909120915182549089166001600160a01b0319918216178355925190820180549189169184169190911790559351600285018054919093166001600160801b0319909116179091559051600383018054918616918316919091179055915160049091018054919093169116179055565b60008381526001602081905260409091209081015460038201546004909201546001600160a01b03918216928216911661057a8284876105f8565b6105858184866105f8565b505050505050565b7ff798224302fba9a9fe9700bd9d35a5ea2abda151aa74258327ba98167794232b82826040516105be9291906109d0565b60405180910390a160009081526001602081905260409091200180546001600160a01b0319166001600160a01b0392909216919091179055565b604080516001600160a01b038481166024830152604480830185905283518084039091018152606490920183526020820180516001600160e01b031663a9059cbb60e01b1781529251825160009485949389169392918291908083835b602083106106745780518252601f199092019160209182019101610655565b6001836020036101000a0380198251168184511680821785525050505050509050019150506000604051808303816000865af19150503d80600081146106d6576040519150601f19603f3d011682016040523d82523d6000602084013e6106db565b606091505b5091509150818015610709575080511580610709575080806020019051602081101561070657600080fd5b50515b61073f576040805162461bcd60e51b815260206004820152600260248201526114d560f21b604482015290519081900360640190fd5b5050505050565b805161075181610aae565b919050565b8051600281900b811461075157600080fd5b80516001600160801b038116811461075157600080fd5b805162ffffff8116811461075157600080fd5b6000806000806000608086880312156107a9578081fd5b85356107b481610aae565b945060208601356107c481610aae565b935060408601359250606086013567ffffffffffffffff808211156107e7578283fd5b818801915088601f8301126107fa578283fd5b813581811115610808578384fd5b896020828501011115610819578384fd5b9699959850939650602001949392505050565b6000806040838503121561083e578182fd5b823561084981610aae565b946020939093013593505050565b600060208284031215610868578081fd5b5035919050565b60008060408385031215610881578182fd5b505080516020909101519092909150565b6000806000806000806000806000806000806101808d8f0312156108b4578687fd5b8c516bffffffffffffffffffffffff811681146108cf578788fd5b9b506108dd60208e01610746565b9a506108eb60408e01610746565b99506108f960608e01610746565b985061090760808e0161077f565b975061091560a08e01610756565b965061092360c08e01610756565b955061093160e08e01610768565b94506101008d015193506101208d015192506109506101408e01610768565b915061095f6101608e01610768565b90509295989b509295989b509295989b565b6001600160a01b039384168152919092166020820152604081019190915260600190565b6001600160a01b03958616815293851660208501526001600160801b0392909216604084015283166060830152909116608082015260a00190565b6001600160a01b03929092168252602082015260400190565b6001600160e01b031991909116815260200190565b6020808252600d908201526c2737ba103a34329037bbb732b960991b604082015260600190565b6020808252601590820152744e6f74206120556e6973776170207633204e46542160581b604082015260600190565b815181526020808301516001600160a01b0316908201526040808301516001600160801b0390811691830191909152606092830151169181019190915260800190565b90815260200190565b918252602082015260400190565b6001600160a01b0381168114610ac357600080fd5b5056fea264697066735822122009f9d72071d3118a4ca87eb40ad6807f43ba5f57e993dfcde650314d98663e2764736f6c63430007060033",
    "sourcePath": "/Users/carsonterbush/Documents/Sam Temp/solidity/fundme/contracts/ProvideLiquidity.sol",
    "compiler": {
        "name": "solc",
        "version": "0.7.6+commit.7338295f"
    },
    "functionHashes": {
        "collectAllFees(uint256)": "46ce96dd",
        "deposit(address,uint256)": "47e7ef24",
        "deposits(uint256)": "b02c43d0",
        "onERC721Received(address,address,uint256,bytes)": "150b7a02",
        "retrieveNFT(uint256)": "0a1d7c5f"
    },
    "gasEstimates": {
        "creation": {
            "codeDepositCost": "562400",
            "executionCost": "infinite",
            "totalCost": "infinite"
        },
        "external": {
            "collectAllFees(uint256)": "infinite",
            "deposit(address,uint256)": "infinite",
            "deposits(uint256)": "4713",
            "onERC721Received(address,address,uint256,bytes)": "infinite",
            "retrieveNFT(uint256)": "infinite"
        },
        "internal": {
            "_addRecipient(address,uint256)": "infinite",
            "_createDeposit(address,uint256)": "infinite",
            "_sendToRecipient(uint256,uint256,uint256)": "infinite"
        }
    }
}