{"abi":[{"inputs":[{"internalType":"contract INonfungiblePositionManager","name":"_nonfungiblePositionManager","type":"address"}],"stateMutability":"nonpayable","type":"constructor","name":"constructor"},{"anonymous":false,"inputs":[{"indexed":false,"internalType":"address","name":"recipient","type":"address"},{"indexed":false,"internalType":"uint256","name":"tokenid","type":"uint256"}],"name":"addRecipient","type":"event"},{"anonymous":false,"inputs":[{"indexed":false,"internalType":"address","name":"owner","type":"address"},{"indexed":false,"internalType":"uint256","name":"tokenId","type":"uint256"}],"name":"createDeposit","type":"event"},{"inputs":[{"internalType":"uint256","name":"tokenId","type":"uint256"}],"name":"collectAllFees","outputs":[{"internalType":"uint256","name":"amount0","type":"uint256"},{"internalType":"uint256","name":"amount1","type":"uint256"}],"stateMutability":"nonpayable","type":"function"},{"inputs":[{"internalType":"address","name":"recipient","type":"address"},{"internalType":"uint256","name":"tokenId","type":"uint256"}],"name":"deposit","outputs":[],"stateMutability":"nonpayable","type":"function"},{"inputs":[{"internalType":"uint256","name":"","type":"uint256"}],"name":"deposits","outputs":[{"internalType":"address","name":"owner","type":"address"},{"internalType":"address","name":"recipient","type":"address"},{"internalType":"uint128","name":"liquidity","type":"uint128"},{"internalType":"address","name":"token0","type":"address"},{"internalType":"address","name":"token1","type":"address"}],"stateMutability":"view","type":"function"},{"inputs":[{"internalType":"address","name":"operator","type":"address"},{"internalType":"address","name":"","type":"address"},{"internalType":"uint256","name":"tokenId","type":"uint256"},{"internalType":"bytes","name":"","type":"bytes"}],"name":"onERC721Received","outputs":[{"internalType":"bytes4","name":"","type":"bytes4"}],"stateMutability":"nonpayable","type":"function"},{"inputs":[{"internalType":"uint256","name":"tokenId","type":"uint256"}],"name":"retrieveNFT","outputs":[],"stateMutability":"nonpayable","type":"function"}],"bytecode":"608060405234801561001057600080fd5b50604051610c31380380610c3183398101604081905261002f91610054565b600080546001600160a01b0319166001600160a01b0392909216919091179055610082565b600060208284031215610065578081fd5b81516001600160a01b038116811461007b578182fd5b9392505050565b610ba0806100916000396000f3fe608060405234801561001057600080fd5b50600436106100575760003560e01c80630a1d7c5f1461005c578063150b7a021461007157806346ce96dd1461009a57806347e7ef24146100bb578063b02c43d0146100ce575b600080fd5b61006f61006a3660046108c4565b6100f2565b005b61008461007f3660046107ff565b6101e9565b6040516100919190610a56565b60405180910390f35b6100ad6100a83660046108c4565b610230565b604051610091929190610b44565b61006f6100c9366004610899565b6102f2565b6100e16100dc3660046108c4565b6103b0565b604051610091959493929190610a02565b6000818152600160205260409020546001600160a01b031633146101315760405162461bcd60e51b815260040161012890610aa2565b60405180910390fd5b600054604051632142170760e11b81526001600160a01b03909116906342842e0e90610165903090339086906004016109de565b600060405180830381600087803b15801561017f57600080fd5b505af1158015610193573d6000803e3d6000fd5b50505060009182525060016020819052604090912080546001600160a01b031990811682559181018054831690556002810180546001600160801b03191690556003810180548316905560040180549091169055565b600080546001600160a01b031633146102145760405162461bcd60e51b815260040161012890610ac9565b61021e86856103fb565b50630a85bd0160e11b95945050505050565b604080516080810182528281523060208201526001600160801b03818301819052606082015260008054925163fc6f786560e01b815290928392916001600160a01b039091169063fc6f78659061028b908490600401610af8565b6040805180830381600087803b1580156102a457600080fd5b505af11580156102b8573d6000803e3d6000fd5b505050506040513d601f19601f820116820180604052508101906102dc91906108dc565b90935091506102ec848484610589565b50915091565b6000546040516331a9108f60e11b815233916001600160a01b031690636352211e90610322908590600401610b3b565b60206040518083038186803b15801561033a57600080fd5b505afa15801561034e573d6000803e3d6000fd5b505050506040513d601f19601f8201168201806040525081019061037291906107dc565b6001600160a01b0316146103985760405162461bcd60e51b815260040161012890610a6b565b6103a233826103fb565b6103ac82826105d7565b5050565b6001602081905260009182526040909120805491810154600282015460038301546004909301546001600160a01b0394851694928316936001600160801b0390921692918216911685565b6000805460405163133f757160e31b8152829182916001600160a01b03909116906399fbab8890610430908790600401610b3b565b6101806040518083038186803b15801561044957600080fd5b505afa15801561045d573d6000803e3d6000fd5b505050506040513d601f19601f8201168201806040525081019061048191906108ff565b5050505097505050509450945050507f442e501d827074336675c14a01c2c81c01219206aead308f594a84b95d1cefb785856040516104c1929190610a3d565b60405180910390a16040805160a0810182526001600160a01b039687168152600060208083018281526001600160801b03958616848601908152978a1660608501908152968a166080850190815298835260019182905293909120915182549089166001600160a01b0319918216178355925190820180549189169184169190911790559351600285018054919093166001600160801b0319909116179091559051600383018054918616918316919091179055915160049091018054919093169116179055565b60008381526001602081905260409091209081015460038201546004909201546001600160a01b0391821692821691166105c4828487610642565b6105cf818486610642565b505050505050565b7ff798224302fba9a9fe9700bd9d35a5ea2abda151aa74258327ba98167794232b8282604051610608929190610a3d565b60405180910390a160009081526001602081905260409091200180546001600160a01b0319166001600160a01b0392909216919091179055565b604080516001600160a01b038481166024830152604480830185905283518084039091018152606490920183526020820180516001600160e01b031663a9059cbb60e01b1781529251825160009485949389169392918291908083835b602083106106be5780518252601f19909201916020918201910161069f565b6001836020036101000a0380198251168184511680821785525050505050509050019150506000604051808303816000865af19150503d8060008114610720576040519150601f19603f3d011682016040523d82523d6000602084013e610725565b606091505b5091509150818015610753575080511580610753575080806020019051602081101561075057600080fd5b50515b610789576040805162461bcd60e51b815260206004820152600260248201526114d560f21b604482015290519081900360640190fd5b5050505050565b805161079b81610b52565b919050565b8051600281900b811461079b57600080fd5b80516001600160801b038116811461079b57600080fd5b805162ffffff8116811461079b57600080fd5b6000602082840312156107ed578081fd5b81516107f881610b52565b9392505050565b600080600080600060808688031215610816578081fd5b853561082181610b52565b9450602086013561083181610b52565b935060408601359250606086013567ffffffffffffffff80821115610854578283fd5b818801915088601f830112610867578283fd5b813581811115610875578384fd5b896020828501011115610886578384fd5b9699959850939650602001949392505050565b600080604083850312156108ab578182fd5b82356108b681610b52565b946020939093013593505050565b6000602082840312156108d5578081fd5b5035919050565b600080604083850312156108ee578182fd5b505080516020909101519092909150565b6000806000806000806000806000806000806101808d8f031215610921578687fd5b8c516bffffffffffffffffffffffff8116811461093c578788fd5b9b5061094a60208e01610790565b9a5061095860408e01610790565b995061096660608e01610790565b985061097460808e016107c9565b975061098260a08e016107a0565b965061099060c08e016107a0565b955061099e60e08e016107b2565b94506101008d015193506101208d015192506109bd6101408e016107b2565b91506109cc6101608e016107b2565b90509295989b509295989b509295989b565b6001600160a01b039384168152919092166020820152604081019190915260600190565b6001600160a01b03958616815293851660208501526001600160801b0392909216604084015283166060830152909116608082015260a00190565b6001600160a01b03929092168252602082015260400190565b6001600160e01b031991909116815260200190565b60208082526018908201527f596f7520646f206e6f74206f776e2074686973204e4654210000000000000000604082015260600190565b6020808252600d908201526c2737ba103a34329037bbb732b960991b604082015260600190565b6020808252601590820152744e6f74206120556e6973776170207633204e46542160581b604082015260600190565b815181526020808301516001600160a01b0316908201526040808301516001600160801b0390811691830191909152606092830151169181019190915260800190565b90815260200190565b918252602082015260400190565b6001600160a01b0381168114610b6757600080fd5b5056fea26469706673582212204313f52396e8f71f6dc9432a75fb9c58b2641962ef2fad5366f756215cacd21a64736f6c63430007060033","bytecodeSha1":"e02e4b5a933d5c952a989ab098564db88a022f04","compiler":{"evm_version":"istanbul","optimizer":{"enabled":true,"runs":200},"version":"0.7.6+commit.7338295f"},"contractName":"ProvideLiquidity","language":"Solidity","natspec":{"kind":"dev","methods":{"retrieveNFT(uint256)":{"notice":"Transfers the NFT to the owner","params":{"tokenId":"The id of the erc721"}}},"stateVariables":{"deposits":{"details":"deposits[tokenId] => Deposit"}},"version":1},"opcodes":"PUSH1 0x80 PUSH1 0x40 MSTORE CALLVALUE DUP1 ISZERO PUSH2 0x10 JUMPI PUSH1 0x0 DUP1 REVERT JUMPDEST POP PUSH1 0x4 CALLDATASIZE LT PUSH2 0x57 JUMPI PUSH1 0x0 CALLDATALOAD PUSH1 0xE0 SHR DUP1 PUSH4 0xA1D7C5F EQ PUSH2 0x5C JUMPI DUP1 PUSH4 0x150B7A02 EQ PUSH2 0x71 JUMPI DUP1 PUSH4 0x46CE96DD EQ PUSH2 0x9A JUMPI DUP1 PUSH4 0x47E7EF24 EQ PUSH2 0xBB JUMPI DUP1 PUSH4 0xB02C43D0 EQ PUSH2 0xCE JUMPI JUMPDEST PUSH1 0x0 DUP1 REVERT JUMPDEST PUSH2 0x6F PUSH2 0x6A CALLDATASIZE PUSH1 0x4 PUSH2 0x8C4 JUMP JUMPDEST PUSH2 0xF2 JUMP JUMPDEST STOP JUMPDEST PUSH2 0x84 PUSH2 0x7F CALLDATASIZE PUSH1 0x4 PUSH2 0x7FF JUMP JUMPDEST PUSH2 0x1E9 JUMP JUMPDEST PUSH1 0x40 MLOAD PUSH2 0x91 SWAP2 SWAP1 PUSH2 0xA56 JUMP JUMPDEST PUSH1 0x40 MLOAD DUP1 SWAP2 SUB SWAP1 RETURN JUMPDEST PUSH2 0xAD PUSH2 0xA8 CALLDATASIZE PUSH1 0x4 PUSH2 0x8C4 JUMP JUMPDEST PUSH2 0x230 JUMP JUMPDEST PUSH1 0x40 MLOAD PUSH2 0x91 SWAP3 SWAP2 SWAP1 PUSH2 0xB44 JUMP JUMPDEST PUSH2 0x6F PUSH2 0xC9 CALLDATASIZE PUSH1 0x4 PUSH2 0x899 JUMP JUMPDEST PUSH2 0x2F2 JUMP JUMPDEST PUSH2 0xE1 PUSH2 0xDC CALLDATASIZE PUSH1 0x4 PUSH2 0x8C4 JUMP JUMPDEST PUSH2 0x3B0 JUMP JUMPDEST PUSH1 0x40 MLOAD PUSH2 0x91 SWAP6 SWAP5 SWAP4 SWAP3 SWAP2 SWAP1 PUSH2 0xA02 JUMP JUMPDEST PUSH1 0x0 DUP2 DUP2 MSTORE PUSH1 0x1 PUSH1 0x20 MSTORE PUSH1 0x40 SWAP1 KECCAK256 SLOAD PUSH1 0x1 PUSH1 0x1 PUSH1 0xA0 SHL SUB AND CALLER EQ PUSH2 0x131 JUMPI PUSH1 0x40 MLOAD PUSH3 0x461BCD PUSH1 0xE5 SHL DUP2 MSTORE PUSH1 0x4 ADD PUSH2 0x128 SWAP1 PUSH2 0xAA2 JUMP JUMPDEST PUSH1 0x40 MLOAD DUP1 SWAP2 SUB SWAP1 REVERT JUMPDEST PUSH1 0x0 SLOAD PUSH1 0x40 MLOAD PUSH4 0x21421707 PUSH1 0xE1 SHL DUP2 MSTORE PUSH1 0x1 PUSH1 0x1 PUSH1 0xA0 SHL SUB SWAP1 SWAP2 AND SWAP1 PUSH4 0x42842E0E SWAP1 PUSH2 0x165 SWAP1 ADDRESS SWAP1 CALLER SWAP1 DUP7 SWAP1 PUSH1 0x4 ADD PUSH2 0x9DE JUMP JUMPDEST PUSH1 0x0 PUSH1 0x40 MLOAD DUP1 DUP4 SUB DUP2 PUSH1 0x0 DUP8 DUP1 EXTCODESIZE ISZERO DUP1 ISZERO PUSH2 0x17F JUMPI PUSH1 0x0 DUP1 REVERT JUMPDEST POP GAS CALL ISZERO DUP1 ISZERO PUSH2 0x193 JUMPI RETURNDATASIZE PUSH1 0x0 DUP1 RETURNDATACOPY RETURNDATASIZE PUSH1 0x0 REVERT JUMPDEST POP POP POP PUSH1 0x0 SWAP2 DUP3 MSTORE POP PUSH1 0x1 PUSH1 0x20 DUP2 SWAP1 MSTORE PUSH1 0x40 SWAP1 SWAP2 KECCAK256 DUP1 SLOAD PUSH1 0x1 PUSH1 0x1 PUSH1 0xA0 SHL SUB NOT SWAP1 DUP2 AND DUP3 SSTORE SWAP2 DUP2 ADD DUP1 SLOAD DUP4 AND SWAP1 SSTORE PUSH1 0x2 DUP2 ADD DUP1 SLOAD PUSH1 0x1 PUSH1 0x1 PUSH1 0x80 SHL SUB NOT AND SWAP1 SSTORE PUSH1 0x3 DUP2 ADD DUP1 SLOAD DUP4 AND SWAP1 SSTORE PUSH1 0x4 ADD DUP1 SLOAD SWAP1 SWAP2 AND SWAP1 SSTORE JUMP JUMPDEST PUSH1 0x0 DUP1 SLOAD PUSH1 0x1 PUSH1 0x1 PUSH1 0xA0 SHL SUB AND CALLER EQ PUSH2 0x214 JUMPI PUSH1 0x40 MLOAD PUSH3 0x461BCD PUSH1 0xE5 SHL DUP2 MSTORE PUSH1 0x4 ADD PUSH2 0x128 SWAP1 PUSH2 0xAC9 JUMP JUMPDEST PUSH2 0x21E DUP7 DUP6 PUSH2 0x3FB JUMP JUMPDEST POP PUSH4 0xA85BD01 PUSH1 0xE1 SHL SWAP6 SWAP5 POP POP POP POP POP JUMP JUMPDEST PUSH1 0x40 DUP1 MLOAD PUSH1 0x80 DUP2 ADD DUP3 MSTORE DUP3 DUP2 MSTORE ADDRESS PUSH1 0x20 DUP3 ADD MSTORE PUSH1 0x1 PUSH1 0x1 PUSH1 0x80 SHL SUB DUP2 DUP4 ADD DUP2 SWAP1 MSTORE PUSH1 0x60 DUP3 ADD MSTORE PUSH1 0x0 DUP1 SLOAD SWAP3 MLOAD PUSH4 0xFC6F7865 PUSH1 0xE0 SHL DUP2 MSTORE SWAP1 SWAP3 DUP4 SWAP3 SWAP2 PUSH1 0x1 PUSH1 0x1 PUSH1 0xA0 SHL SUB SWAP1 SWAP2 AND SWAP1 PUSH4 0xFC6F7865 SWAP1 PUSH2 0x28B SWAP1 DUP5 SWAP1 PUSH1 0x4 ADD PUSH2 0xAF8 JUMP JUMPDEST PUSH1 0x40 DUP1 MLOAD DUP1 DUP4 SUB DUP2 PUSH1 0x0 DUP8 DUP1 EXTCODESIZE ISZERO DUP1 ISZERO PUSH2 0x2A4 JUMPI PUSH1 0x0 DUP1 REVERT JUMPDEST POP GAS CALL ISZERO DUP1 ISZERO PUSH2 0x2B8 JUMPI RETURNDATASIZE PUSH1 0x0 DUP1 RETURNDATACOPY RETURNDATASIZE PUSH1 0x0 REVERT JUMPDEST POP POP POP POP PUSH1 0x40 MLOAD RETURNDATASIZE PUSH1 0x1F NOT PUSH1 0x1F DUP3 ADD AND DUP3 ADD DUP1 PUSH1 0x40 MSTORE POP DUP2 ADD SWAP1 PUSH2 0x2DC SWAP2 SWAP1 PUSH2 0x8DC JUMP JUMPDEST SWAP1 SWAP4 POP SWAP2 POP PUSH2 0x2EC DUP5 DUP5 DUP5 PUSH2 0x589 JUMP JUMPDEST POP SWAP2 POP SWAP2 JUMP JUMPDEST PUSH1 0x0 SLOAD PUSH1 0x40 MLOAD PUSH4 0x31A9108F PUSH1 0xE1 SHL DUP2 MSTORE CALLER SWAP2 PUSH1 0x1 PUSH1 0x1 PUSH1 0xA0 SHL SUB AND SWAP1 PUSH4 0x6352211E SWAP1 PUSH2 0x322 SWAP1 DUP6 SWAP1 PUSH1 0x4 ADD PUSH2 0xB3B JUMP JUMPDEST PUSH1 0x20 PUSH1 0x40 MLOAD DUP1 DUP4 SUB DUP2 DUP7 DUP1 EXTCODESIZE ISZERO DUP1 ISZERO PUSH2 0x33A JUMPI PUSH1 0x0 DUP1 REVERT JUMPDEST POP GAS STATICCALL ISZERO DUP1 ISZERO PUSH2 0x34E JUMPI RETURNDATASIZE PUSH1 0x0 DUP1 RETURNDATACOPY RETURNDATASIZE PUSH1 0x0 REVERT JUMPDEST POP POP POP POP PUSH1 0x40 MLOAD RETURNDATASIZE PUSH1 0x1F NOT PUSH1 0x1F DUP3 ADD AND DUP3 ADD DUP1 PUSH1 0x40 MSTORE POP DUP2 ADD SWAP1 PUSH2 0x372 SWAP2 SWAP1 PUSH2 0x7DC JUMP JUMPDEST PUSH1 0x1 PUSH1 0x1 PUSH1 0xA0 SHL SUB AND EQ PUSH2 0x398 JUMPI PUSH1 0x40 MLOAD PUSH3 0x461BCD PUSH1 0xE5 SHL DUP2 MSTORE PUSH1 0x4 ADD PUSH2 0x128 SWAP1 PUSH2 0xA6B JUMP JUMPDEST PUSH2 0x3A2 CALLER DUP3 PUSH2 0x3FB JUMP JUMPDEST PUSH2 0x3AC DUP3 DUP3 PUSH2 0x5D7 JUMP JUMPDEST POP POP JUMP JUMPDEST PUSH1 0x1 PUSH1 0x20 DUP2 SWAP1 MSTORE PUSH1 0x0 SWAP2 DUP3 MSTORE PUSH1 0x40 SWAP1 SWAP2 KECCAK256 DUP1 SLOAD SWAP2 DUP2 ADD SLOAD PUSH1 0x2 DUP3 ADD SLOAD PUSH1 0x3 DUP4 ADD SLOAD PUSH1 0x4 SWAP1 SWAP4 ADD SLOAD PUSH1 0x1 PUSH1 0x1 PUSH1 0xA0 SHL SUB SWAP5 DUP6 AND SWAP5 SWAP3 DUP4 AND SWAP4 PUSH1 0x1 PUSH1 0x1 PUSH1 0x80 SHL SUB SWAP1 SWAP3 AND SWAP3 SWAP2 DUP3 AND SWAP2 AND DUP6 JUMP JUMPDEST PUSH1 0x0 DUP1 SLOAD PUSH1 0x40 MLOAD PUSH4 0x133F7571 PUSH1 0xE3 SHL DUP2 MSTORE DUP3 SWAP2 DUP3 SWAP2 PUSH1 0x1 PUSH1 0x1 PUSH1 0xA0 SHL SUB SWAP1 SWAP2 AND SWAP1 PUSH4 0x99FBAB88 SWAP1 PUSH2 0x430 SWAP1 DUP8 SWAP1 PUSH1 0x4 ADD PUSH2 0xB3B JUMP JUMPDEST PUSH2 0x180 PUSH1 0x40 MLOAD DUP1 DUP4 SUB DUP2 DUP7 DUP1 EXTCODESIZE ISZERO DUP1 ISZERO PUSH2 0x449 JUMPI PUSH1 0x0 DUP1 REVERT JUMPDEST POP GAS STATICCALL ISZERO DUP1 ISZERO PUSH2 0x45D JUMPI RETURNDATASIZE PUSH1 0x0 DUP1 RETURNDATACOPY RETURNDATASIZE PUSH1 0x0 REVERT JUMPDEST POP POP POP POP PUSH1 0x40 MLOAD RETURNDATASIZE PUSH1 0x1F NOT PUSH1 0x1F DUP3 ADD AND DUP3 ADD DUP1 PUSH1 0x40 MSTORE POP DUP2 ADD SWAP1 PUSH2 0x481 SWAP2 SWAP1 PUSH2 0x8FF JUMP JUMPDEST POP POP POP POP SWAP8 POP POP POP POP SWAP5 POP SWAP5 POP POP POP PUSH32 0x442E501D827074336675C14A01C2C81C01219206AEAD308F594A84B95D1CEFB7 DUP6 DUP6 PUSH1 0x40 MLOAD PUSH2 0x4C1 SWAP3 SWAP2 SWAP1 PUSH2 0xA3D JUMP JUMPDEST PUSH1 0x40 MLOAD DUP1 SWAP2 SUB SWAP1 LOG1 PUSH1 0x40 DUP1 MLOAD PUSH1 0xA0 DUP2 ADD DUP3 MSTORE PUSH1 0x1 PUSH1 0x1 PUSH1 0xA0 SHL SUB SWAP7 DUP8 AND DUP2 MSTORE PUSH1 0x0 PUSH1 0x20 DUP1 DUP4 ADD DUP3 DUP2 MSTORE PUSH1 0x1 PUSH1 0x1 PUSH1 0x80 SHL SUB SWAP6 DUP7 AND DUP5 DUP7 ADD SWAP1 DUP2 MSTORE SWAP8 DUP11 AND PUSH1 0x60 DUP6 ADD SWAP1 DUP2 MSTORE SWAP7 DUP11 AND PUSH1 0x80 DUP6 ADD SWAP1 DUP2 MSTORE SWAP9 DUP4 MSTORE PUSH1 0x1 SWAP2 DUP3 SWAP1 MSTORE SWAP4 SWAP1 SWAP2 KECCAK256 SWAP2 MLOAD DUP3 SLOAD SWAP1 DUP10 AND PUSH1 0x1 PUSH1 0x1 PUSH1 0xA0 SHL SUB NOT SWAP2 DUP3 AND OR DUP4 SSTORE SWAP3 MLOAD SWAP1 DUP3 ADD DUP1 SLOAD SWAP2 DUP10 AND SWAP2 DUP5 AND SWAP2 SWAP1 SWAP2 OR SWAP1 SSTORE SWAP4 MLOAD PUSH1 0x2 DUP6 ADD DUP1 SLOAD SWAP2 SWAP1 SWAP4 AND PUSH1 0x1 PUSH1 0x1 PUSH1 0x80 SHL SUB NOT SWAP1 SWAP2 AND OR SWAP1 SWAP2 SSTORE SWAP1 MLOAD PUSH1 0x3 DUP4 ADD DUP1 SLOAD SWAP2 DUP7 AND SWAP2 DUP4 AND SWAP2 SWAP1 SWAP2 OR SWAP1 SSTORE SWAP2 MLOAD PUSH1 0x4 SWAP1 SWAP2 ADD DUP1 SLOAD SWAP2 SWAP1 SWAP4 AND SWAP2 AND OR SWAP1 SSTORE JUMP JUMPDEST PUSH1 0x0 DUP4 DUP2 MSTORE PUSH1 0x1 PUSH1 0x20 DUP2 SWAP1 MSTORE PUSH1 0x40 SWAP1 SWAP2 KECCAK256 SWAP1 DUP2 ADD SLOAD PUSH1 0x3 DUP3 ADD SLOAD PUSH1 0x4 SWAP1 SWAP3 ADD SLOAD PUSH1 0x1 PUSH1 0x1 PUSH1 0xA0 SHL SUB SWAP2 DUP3 AND SWAP3 DUP3 AND SWAP2 AND PUSH2 0x5C4 DUP3 DUP5 DUP8 PUSH2 0x642 JUMP JUMPDEST PUSH2 0x5CF DUP2 DUP5 DUP7 PUSH2 0x642 JUMP JUMPDEST POP POP POP POP POP POP JUMP JUMPDEST PUSH32 0xF798224302FBA9A9FE9700BD9D35A5EA2ABDA151AA74258327BA98167794232B DUP3 DUP3 PUSH1 0x40 MLOAD PUSH2 0x608 SWAP3 SWAP2 SWAP1 PUSH2 0xA3D JUMP JUMPDEST PUSH1 0x40 MLOAD DUP1 SWAP2 SUB SWAP1 LOG1 PUSH1 0x0 SWAP1 DUP2 MSTORE PUSH1 0x1 PUSH1 0x20 DUP2 SWAP1 MSTORE PUSH1 0x40 SWAP1 SWAP2 KECCAK256 ADD DUP1 SLOAD PUSH1 0x1 PUSH1 0x1 PUSH1 0xA0 SHL SUB NOT AND PUSH1 0x1 PUSH1 0x1 PUSH1 0xA0 SHL SUB SWAP3 SWAP1 SWAP3 AND SWAP2 SWAP1 SWAP2 OR SWAP1 SSTORE JUMP JUMPDEST PUSH1 0x40 DUP1 MLOAD PUSH1 0x1 PUSH1 0x1 PUSH1 0xA0 SHL SUB DUP5 DUP2 AND PUSH1 0x24 DUP4 ADD MSTORE PUSH1 0x44 DUP1 DUP4 ADD DUP6 SWAP1 MSTORE DUP4 MLOAD DUP1 DUP5 SUB SWAP1 SWAP2 ADD DUP2 MSTORE PUSH1 0x64 SWAP1 SWAP3 ADD DUP4 MSTORE PUSH1 0x20 DUP3 ADD DUP1 MLOAD PUSH1 0x1 PUSH1 0x1 PUSH1 0xE0 SHL SUB AND PUSH4 0xA9059CBB PUSH1 0xE0 SHL OR DUP2 MSTORE SWAP3 MLOAD DUP3 MLOAD PUSH1 0x0 SWAP5 DUP6 SWAP5 SWAP4 DUP10 AND SWAP4 SWAP3 SWAP2 DUP3 SWAP2 SWAP1 DUP1 DUP4 DUP4 JUMPDEST PUSH1 0x20 DUP4 LT PUSH2 0x6BE JUMPI DUP1 MLOAD DUP3 MSTORE PUSH1 0x1F NOT SWAP1 SWAP3 ADD SWAP2 PUSH1 0x20 SWAP2 DUP3 ADD SWAP2 ADD PUSH2 0x69F JUMP JUMPDEST PUSH1 0x1 DUP4 PUSH1 0x20 SUB PUSH2 0x100 EXP SUB DUP1 NOT DUP3 MLOAD AND DUP2 DUP5 MLOAD AND DUP1 DUP3 OR DUP6 MSTORE POP POP POP POP POP POP SWAP1 POP ADD SWAP2 POP POP PUSH1 0x0 PUSH1 0x40 MLOAD DUP1 DUP4 SUB DUP2 PUSH1 0x0 DUP7 GAS CALL SWAP2 POP POP RETURNDATASIZE DUP1 PUSH1 0x0 DUP2 EQ PUSH2 0x720 JUMPI PUSH1 0x40 MLOAD SWAP2 POP PUSH1 0x1F NOT PUSH1 0x3F RETURNDATASIZE ADD AND DUP3 ADD PUSH1 0x40 MSTORE RETURNDATASIZE DUP3 MSTORE RETURNDATASIZE PUSH1 0x0 PUSH1 0x20 DUP5 ADD RETURNDATACOPY PUSH2 0x725 JUMP JUMPDEST PUSH1 0x60 SWAP2 POP JUMPDEST POP SWAP2 POP SWAP2 POP DUP2 DUP1 ISZERO PUSH2 0x753 JUMPI POP DUP1 MLOAD ISZERO DUP1 PUSH2 0x753 JUMPI POP DUP1 DUP1 PUSH1 0x20 ADD SWAP1 MLOAD PUSH1 0x20 DUP2 LT ISZERO PUSH2 0x750 JUMPI PUSH1 0x0 DUP1 REVERT JUMPDEST POP MLOAD JUMPDEST PUSH2 0x789 JUMPI PUSH1 0x40 DUP1 MLOAD PUSH3 0x461BCD PUSH1 0xE5 SHL DUP2 MSTORE PUSH1 0x20 PUSH1 0x4 DUP3 ADD MSTORE PUSH1 0x2 PUSH1 0x24 DUP3 ADD MSTORE PUSH2 0x14D5 PUSH1 0xF2 SHL PUSH1 0x44 DUP3 ADD MSTORE SWAP1 MLOAD SWAP1 DUP2 SWAP1 SUB PUSH1 0x64 ADD SWAP1 REVERT JUMPDEST POP POP POP POP POP JUMP JUMPDEST DUP1 MLOAD PUSH2 0x79B DUP2 PUSH2 0xB52 JUMP JUMPDEST SWAP2 SWAP1 POP JUMP JUMPDEST DUP1 MLOAD PUSH1 0x2 DUP2 SWAP1 SIGNEXTEND DUP2 EQ PUSH2 0x79B JUMPI PUSH1 0x0 DUP1 REVERT JUMPDEST DUP1 MLOAD PUSH1 0x1 PUSH1 0x1 PUSH1 0x80 SHL SUB DUP2 AND DUP2 EQ PUSH2 0x79B JUMPI PUSH1 0x0 DUP1 REVERT JUMPDEST DUP1 MLOAD PUSH3 0xFFFFFF DUP2 AND DUP2 EQ PUSH2 0x79B JUMPI PUSH1 0x0 DUP1 REVERT JUMPDEST PUSH1 0x0 PUSH1 0x20 DUP3 DUP5 SUB SLT ISZERO PUSH2 0x7ED JUMPI DUP1 DUP2 REVERT JUMPDEST DUP2 MLOAD PUSH2 0x7F8 DUP2 PUSH2 0xB52 JUMP JUMPDEST SWAP4 SWAP3 POP POP POP JUMP JUMPDEST PUSH1 0x0 DUP1 PUSH1 0x0 DUP1 PUSH1 0x0 PUSH1 0x80 DUP7 DUP9 SUB SLT ISZERO PUSH2 0x816 JUMPI DUP1 DUP2 REVERT JUMPDEST DUP6 CALLDATALOAD PUSH2 0x821 DUP2 PUSH2 0xB52 JUMP JUMPDEST SWAP5 POP PUSH1 0x20 DUP7 ADD CALLDATALOAD PUSH2 0x831 DUP2 PUSH2 0xB52 JUMP JUMPDEST SWAP4 POP PUSH1 0x40 DUP7 ADD CALLDATALOAD SWAP3 POP PUSH1 0x60 DUP7 ADD CALLDATALOAD PUSH8 0xFFFFFFFFFFFFFFFF DUP1 DUP3 GT ISZERO PUSH2 0x854 JUMPI DUP3 DUP4 REVERT JUMPDEST DUP2 DUP9 ADD SWAP2 POP DUP9 PUSH1 0x1F DUP4 ADD SLT PUSH2 0x867 JUMPI DUP3 DUP4 REVERT JUMPDEST DUP2 CALLDATALOAD DUP2 DUP2 GT ISZERO PUSH2 0x875 JUMPI DUP4 DUP5 REVERT JUMPDEST DUP10 PUSH1 0x20 DUP3 DUP6 ADD ADD GT ISZERO PUSH2 0x886 JUMPI DUP4 DUP5 REVERT JUMPDEST SWAP7 SWAP10 SWAP6 SWAP9 POP SWAP4 SWAP7 POP PUSH1 0x20 ADD SWAP5 SWAP4 SWAP3 POP POP POP JUMP JUMPDEST PUSH1 0x0 DUP1 PUSH1 0x40 DUP4 DUP6 SUB SLT ISZERO PUSH2 0x8AB JUMPI DUP2 DUP3 REVERT JUMPDEST DUP3 CALLDATALOAD PUSH2 0x8B6 DUP2 PUSH2 0xB52 JUMP JUMPDEST SWAP5 PUSH1 0x20 SWAP4 SWAP1 SWAP4 ADD CALLDATALOAD SWAP4 POP POP POP JUMP JUMPDEST PUSH1 0x0 PUSH1 0x20 DUP3 DUP5 SUB SLT ISZERO PUSH2 0x8D5 JUMPI DUP1 DUP2 REVERT JUMPDEST POP CALLDATALOAD SWAP2 SWAP1 POP JUMP JUMPDEST PUSH1 0x0 DUP1 PUSH1 0x40 DUP4 DUP6 SUB SLT ISZERO PUSH2 0x8EE JUMPI DUP2 DUP3 REVERT JUMPDEST POP POP DUP1 MLOAD PUSH1 0x20 SWAP1 SWAP2 ADD MLOAD SWAP1 SWAP3 SWAP1 SWAP2 POP JUMP JUMPDEST PUSH1 0x0 DUP1 PUSH1 0x0 DUP1 PUSH1 0x0 DUP1 PUSH1 0x0 DUP1 PUSH1 0x0 DUP1 PUSH1 0x0 DUP1 PUSH2 0x180 DUP14 DUP16 SUB SLT ISZERO PUSH2 0x921 JUMPI DUP7 DUP8 REVERT JUMPDEST DUP13 MLOAD PUSH12 0xFFFFFFFFFFFFFFFFFFFFFFFF DUP2 AND DUP2 EQ PUSH2 0x93C JUMPI DUP8 DUP9 REVERT JUMPDEST SWAP12 POP PUSH2 0x94A PUSH1 0x20 DUP15 ADD PUSH2 0x790 JUMP JUMPDEST SWAP11 POP PUSH2 0x958 PUSH1 0x40 DUP15 ADD PUSH2 0x790 JUMP JUMPDEST SWAP10 POP PUSH2 0x966 PUSH1 0x60 DUP15 ADD PUSH2 0x790 JUMP JUMPDEST SWAP9 POP PUSH2 0x974 PUSH1 0x80 DUP15 ADD PUSH2 0x7C9 JUMP JUMPDEST SWAP8 POP PUSH2 0x982 PUSH1 0xA0 DUP15 ADD PUSH2 0x7A0 JUMP JUMPDEST SWAP7 POP PUSH2 0x990 PUSH1 0xC0 DUP15 ADD PUSH2 0x7A0 JUMP JUMPDEST SWAP6 POP PUSH2 0x99E PUSH1 0xE0 DUP15 ADD PUSH2 0x7B2 JUMP JUMPDEST SWAP5 POP PUSH2 0x100 DUP14 ADD MLOAD SWAP4 POP PUSH2 0x120 DUP14 ADD MLOAD SWAP3 POP PUSH2 0x9BD PUSH2 0x140 DUP15 ADD PUSH2 0x7B2 JUMP JUMPDEST SWAP2 POP PUSH2 0x9CC PUSH2 0x160 DUP15 ADD PUSH2 0x7B2 JUMP JUMPDEST SWAP1 POP SWAP3 SWAP6 SWAP9 SWAP12 POP SWAP3 SWAP6 SWAP9 SWAP12 POP SWAP3 SWAP6 SWAP9 SWAP12 JUMP JUMPDEST PUSH1 0x1 PUSH1 0x1 PUSH1 0xA0 SHL SUB SWAP4 DUP5 AND DUP2 MSTORE SWAP2 SWAP1 SWAP3 AND PUSH1 0x20 DUP3 ADD MSTORE PUSH1 0x40 DUP2 ADD SWAP2 SWAP1 SWAP2 MSTORE PUSH1 0x60 ADD SWAP1 JUMP JUMPDEST PUSH1 0x1 PUSH1 0x1 PUSH1 0xA0 SHL SUB SWAP6 DUP7 AND DUP2 MSTORE SWAP4 DUP6 AND PUSH1 0x20 DUP6 ADD MSTORE PUSH1 0x1 PUSH1 0x1 PUSH1 0x80 SHL SUB SWAP3 SWAP1 SWAP3 AND PUSH1 0x40 DUP5 ADD MSTORE DUP4 AND PUSH1 0x60 DUP4 ADD MSTORE SWAP1 SWAP2 AND PUSH1 0x80 DUP3 ADD MSTORE PUSH1 0xA0 ADD SWAP1 JUMP JUMPDEST PUSH1 0x1 PUSH1 0x1 PUSH1 0xA0 SHL SUB SWAP3 SWAP1 SWAP3 AND DUP3 MSTORE PUSH1 0x20 DUP3 ADD MSTORE PUSH1 0x40 ADD SWAP1 JUMP JUMPDEST PUSH1 0x1 PUSH1 0x1 PUSH1 0xE0 SHL SUB NOT SWAP2 SWAP1 SWAP2 AND DUP2 MSTORE PUSH1 0x20 ADD SWAP1 JUMP JUMPDEST PUSH1 0x20 DUP1 DUP3 MSTORE PUSH1 0x18 SWAP1 DUP3 ADD MSTORE PUSH32 0x596F7520646F206E6F74206F776E2074686973204E4654210000000000000000 PUSH1 0x40 DUP3 ADD MSTORE PUSH1 0x60 ADD SWAP1 JUMP JUMPDEST PUSH1 0x20 DUP1 DUP3 MSTORE PUSH1 0xD SWAP1 DUP3 ADD MSTORE PUSH13 0x2737BA103A34329037BBB732B9 PUSH1 0x99 SHL PUSH1 0x40 DUP3 ADD MSTORE PUSH1 0x60 ADD SWAP1 JUMP JUMPDEST PUSH1 0x20 DUP1 DUP3 MSTORE PUSH1 0x15 SWAP1 DUP3 ADD MSTORE PUSH21 0x4E6F74206120556E6973776170207633204E465421 PUSH1 0x58 SHL PUSH1 0x40 DUP3 ADD MSTORE PUSH1 0x60 ADD SWAP1 JUMP JUMPDEST DUP2 MLOAD DUP2 MSTORE PUSH1 0x20 DUP1 DUP4 ADD MLOAD PUSH1 0x1 PUSH1 0x1 PUSH1 0xA0 SHL SUB AND SWAP1 DUP3 ADD MSTORE PUSH1 0x40 DUP1 DUP4 ADD MLOAD PUSH1 0x1 PUSH1 0x1 PUSH1 0x80 SHL SUB SWAP1 DUP2 AND SWAP2 DUP4 ADD SWAP2 SWAP1 SWAP2 MSTORE PUSH1 0x60 SWAP3 DUP4 ADD MLOAD AND SWAP2 DUP2 ADD SWAP2 SWAP1 SWAP2 MSTORE PUSH1 0x80 ADD SWAP1 JUMP JUMPDEST SWAP1 DUP2 MSTORE PUSH1 0x20 ADD SWAP1 JUMP JUMPDEST SWAP2 DUP3 MSTORE PUSH1 0x20 DUP3 ADD MSTORE PUSH1 0x40 ADD SWAP1 JUMP JUMPDEST PUSH1 0x1 PUSH1 0x1 PUSH1 0xA0 SHL SUB DUP2 AND DUP2 EQ PUSH2 0xB67 JUMPI PUSH1 0x0 DUP1 REVERT JUMPDEST POP JUMP INVALID LOG2 PUSH5 0x6970667358 0x22 SLT KECCAK256 NUMBER SGT CREATE2 0x23 SWAP7 0xE8 0xF7 0x1F PUSH14 0xC9432A75FB9C58B2641962EF2FAD MSTORE8 PUSH7 0xF756215CACD21A PUSH5 0x736F6C6343 STOP SMOD MOD STOP CALLER ","sha1":"1ff6adaf5be2e7f1d7211cca7cdfbbb998aa84a0","source":"// SPDX-License-Identifier: GPL-2.0-or-later\npragma solidity =0.7.6;\npragma abicoder v2;\n\nimport \"@openzeppelin/contracts/token/ERC721/IERC721Receiver.sol\";\nimport \"@uniswap/v3-periphery/contracts/interfaces/INonfungiblePositionManager.sol\";\nimport \"@uniswap/v3-periphery/contracts/libraries/TransferHelper.sol\";\n\ncontract ProvideLiquidity is IERC721Receiver {\n    // address public constant DAI = 0x6B175474E89094C44Da98b954EedeAC495271d0F;\n    // address public constant USDC = 0xA0b86991c6218b36c1d19D4a2e9Eb0cE3606eB48;\n\n    // uint24 public constant poolFee = 3000;\n    // INonfungiblePositionManager public constant nonfungiblePositionManager =\n    //     INonfungiblePositionManager(0xC36442b4a4522E871399CD717aBDD847Ab11FE88);\n    // address public constant nonfungiblePositionManager =\n    // 0xC36442b4a4522E871399CD717aBDD847Ab11FE88;\n    INonfungiblePositionManager nonfungiblePositionManager;\n\n    /// @notice Represents the deposit of an NFT\n    struct Deposit {\n        address owner;\n        address recipient;\n        uint128 liquidity;\n        address token0;\n        address token1;\n    }\n\n    /// @dev deposits[tokenId] => Deposit\n    mapping(uint256 => Deposit) public deposits;\n\n    constructor(INonfungiblePositionManager _nonfungiblePositionManager) {\n        nonfungiblePositionManager = _nonfungiblePositionManager;\n    }\n\n    /// @dev yieldRecipients[tokenId] => yieldRecipient\n\n    // modifier onlyOwner {\n    // \t//is the message sender owner of the contract?\n    //     require(msg.sender == owner);\n\n    //     _;\n    // }\n    event createDeposit(address owner, uint256 tokenId);\n    event addRecipient(address recipient, uint256 tokenid);\n\n    // Implementing `onERC721Received` so this contract can receive custody of erc721 tokens\n    function onERC721Received(\n        address operator,\n        address,\n        uint256 tokenId,\n        bytes calldata\n    ) external override returns (bytes4) {\n        // get position information\n        require(\n            msg.sender == address(nonfungiblePositionManager),\n            \"Not a Uniswap v3 NFT!\"\n        );\n        _createDeposit(operator, tokenId);\n\n        return this.onERC721Received.selector;\n    }\n\n    function _createDeposit(address owner, uint256 tokenId) internal {\n        (\n            ,\n            ,\n            address token0,\n            address token1,\n            ,\n            ,\n            ,\n            uint128 liquidity,\n            ,\n            ,\n            ,\n\n        ) = nonfungiblePositionManager.positions(tokenId);\n        emit createDeposit(owner, tokenId);\n        // set the owner and data for position\n        // operator is msg.sender\n        deposits[tokenId] = Deposit({\n            owner: owner,\n            recipient: address(0),\n            liquidity: liquidity,\n            token0: token0,\n            token1: token1\n        });\n    }\n\n    function _addRecipient(address recipient, uint256 tokenId) internal {\n        emit addRecipient(recipient, tokenId);\n        deposits[tokenId].recipient = recipient;\n    }\n\n    function deposit(address recipient, uint256 tokenId) external {\n        require(\n            nonfungiblePositionManager.ownerOf(tokenId) == msg.sender,\n            \"You do not own this NFT!\"\n        );\n        _createDeposit(msg.sender, tokenId);\n        _addRecipient(recipient, tokenId);\n    }\n\n    // function transferToContract(address user, uint256 _tokenId) public {\n    //     _transfer(user, address(this), _tokenId);\n    //     deposits[tokenId] =\n    // }\n\n    function collectAllFees(uint256 tokenId)\n        external\n        returns (uint256 amount0, uint256 amount1)\n    {\n        // Caller must own the ERC721 position\n        // Call to safeTransfer will trigger `onERC721Received` which must return the selector else transfer will fail\n        // nonfungiblePositionManager.safeTransferFrom(\n        //     msg.sender,\n        //     address(this),\n        //     tokenId\n        // );\n\n        // set amount0Max and amount1Max to uint256.max to collect all fees\n        // alternatively can set recipient to msg.sender and avoid another transaction in `sendToOwner`\n        INonfungiblePositionManager.CollectParams\n            memory params = INonfungiblePositionManager.CollectParams({\n                tokenId: tokenId,\n                recipient: address(this),\n                amount0Max: type(uint128).max,\n                amount1Max: type(uint128).max\n            });\n\n        (amount0, amount1) = nonfungiblePositionManager.collect(params);\n\n        // forward yield to specified address\n        _sendToRecipient(tokenId, amount0, amount1);\n    }\n\n    /// @notice Transfers funds to owner of NFT\n    /// @param tokenId The id of the erc721\n    /// @param amount0 The amount of token0\n    /// @param amount1 The amount of token1\n    function _sendToRecipient(\n        uint256 tokenId,\n        uint256 amount0,\n        uint256 amount1\n    ) private {\n        // get yield recipient\n        address recipient = deposits[tokenId].recipient;\n\n        address token0 = deposits[tokenId].token0;\n        address token1 = deposits[tokenId].token1;\n        // send collected fees to recipient\n        TransferHelper.safeTransfer(token0, recipient, amount0);\n        TransferHelper.safeTransfer(token1, recipient, amount1);\n    }\n\n    /// @notice Transfers the NFT to the owner\n    /// @param tokenId The id of the erc721\n    function retrieveNFT(uint256 tokenId) external {\n        // must be the owner of the NFT\n        require(msg.sender == deposits[tokenId].owner, \"Not the owner\");\n        // transfer ownership to original owner\n        nonfungiblePositionManager.safeTransferFrom(\n            address(this),\n            msg.sender,\n            tokenId\n        );\n        //remove information related to tokenId\n        delete deposits[tokenId];\n    }\n}\n","sourcePath":"contracts/ProvideLiquidity.sol","type":"contract","deployment":{"address":"0x42449CFB0418E7617b58aEF5CF8368660a0d3452","chainid":"4","blockHeight":11030915}}