{"abi":[{"inputs":[{"internalType":"contract INonfungiblePositionManager","name":"_nonfungiblePositionManager","type":"address"}],"stateMutability":"nonpayable","type":"constructor","name":"constructor"},{"inputs":[],"name":"DAI","outputs":[{"internalType":"address","name":"","type":"address"}],"stateMutability":"view","type":"function"},{"inputs":[],"name":"USDC","outputs":[{"internalType":"address","name":"","type":"address"}],"stateMutability":"view","type":"function"},{"inputs":[{"internalType":"uint256","name":"tokenId","type":"uint256"}],"name":"collectAllFees","outputs":[{"internalType":"uint256","name":"amount0","type":"uint256"},{"internalType":"uint256","name":"amount1","type":"uint256"}],"stateMutability":"nonpayable","type":"function"},{"inputs":[{"internalType":"uint256","name":"tokenId","type":"uint256"}],"name":"decreaseLiquidityInHalf","outputs":[{"internalType":"uint256","name":"amount0","type":"uint256"},{"internalType":"uint256","name":"amount1","type":"uint256"}],"stateMutability":"nonpayable","type":"function"},{"inputs":[{"internalType":"uint256","name":"","type":"uint256"}],"name":"deposits","outputs":[{"internalType":"address","name":"owner","type":"address"},{"internalType":"uint128","name":"liquidity","type":"uint128"},{"internalType":"address","name":"token0","type":"address"},{"internalType":"address","name":"token1","type":"address"}],"stateMutability":"view","type":"function"},{"inputs":[{"internalType":"uint256","name":"tokenId","type":"uint256"},{"internalType":"uint256","name":"amountAdd0","type":"uint256"},{"internalType":"uint256","name":"amountAdd1","type":"uint256"}],"name":"increaseLiquidityCurrentRange","outputs":[{"internalType":"uint128","name":"liquidity","type":"uint128"},{"internalType":"uint256","name":"amount0","type":"uint256"},{"internalType":"uint256","name":"amount1","type":"uint256"}],"stateMutability":"nonpayable","type":"function"},{"inputs":[],"name":"mintNewPosition","outputs":[{"internalType":"uint256","name":"tokenId","type":"uint256"},{"internalType":"uint128","name":"liquidity","type":"uint128"},{"internalType":"uint256","name":"amount0","type":"uint256"},{"internalType":"uint256","name":"amount1","type":"uint256"}],"stateMutability":"nonpayable","type":"function"},{"inputs":[],"name":"nonfungiblePositionManager","outputs":[{"internalType":"contract INonfungiblePositionManager","name":"","type":"address"}],"stateMutability":"view","type":"function"},{"inputs":[{"internalType":"address","name":"operator","type":"address"},{"internalType":"address","name":"","type":"address"},{"internalType":"uint256","name":"tokenId","type":"uint256"},{"internalType":"bytes","name":"","type":"bytes"}],"name":"onERC721Received","outputs":[{"internalType":"bytes4","name":"","type":"bytes4"}],"stateMutability":"nonpayable","type":"function"},{"inputs":[],"name":"poolFee","outputs":[{"internalType":"uint24","name":"","type":"uint24"}],"stateMutability":"view","type":"function"},{"inputs":[{"internalType":"uint256","name":"tokenId","type":"uint256"}],"name":"retrieveNFT","outputs":[],"stateMutability":"nonpayable","type":"function"}],"bytecode":"60a060405234801561001057600080fd5b5060405161168638038061168683398101604081905261002f91610044565b60601b6001600160601b031916608052610072565b600060208284031215610055578081fd5b81516001600160a01b038116811461006b578182fd5b9392505050565b60805160601c6115bb6100cb600039806102135280610350528061038f52806104435280610508528061057452806106005280610717528061075d52806107c652806108ef52806109fc5280610a3d52506115bb6000f3fe608060405234801561001057600080fd5b50600436106100a95760003560e01c8063617d6d6e11610071578063617d6d6e1461013a5780638187b4c51461015c57806389a302711461016f578063b02c43d014610184578063b44a2722146101a7578063e0bab4c4146101af576100a9565b8063089fe6aa146100ae5780630a1d7c5f146100cc578063150b7a02146100e1578063306d9c611461010157806346ce96dd14610119575b600080fd5b6100b66101b7565b6040516100c39190611522565b60405180910390f35b6100df6100da366004611144565b6101bd565b005b6100f46100ef366004611076565b6102cf565b6040516100c3919061134d565b6101096102ed565b6040516100c3949392919061153b565b61012c610127366004611144565b6105c7565b6040516100c392919061155f565b61014d6101483660046111ba565b6106a4565b6040516100c393929190611501565b61012c61016a366004611144565b61085d565b6101776109a2565b6040516100c391906112e1565b610197610192366004611144565b6109ba565b6040516100c39493929190611319565b6101776109fa565b610177610a1e565b610bb881565b6000818152602081905260409020546001600160a01b031633146101fc5760405162461bcd60e51b81526004016101f390611362565b60405180910390fd5b604051632142170760e11b81526001600160a01b037f000000000000000000000000000000000000000000000000000000000000000016906342842e0e9061024c903090339086906004016112f5565b600060405180830381600087803b15801561026657600080fd5b505af115801561027a573d6000803e3d6000fd5b50505060009182525060208190526040902080546001600160a01b031990811682556001820180546fffffffffffffffffffffffffffffffff1916905560028201805482169055600390910180549091169055565b60006102db8685610a36565b50630a85bd0160e11b95945050505050565b60008080806103e88061031673c7ad46e0b8a400bb3c915120d284aafba8fc4735333084610bfc565b61033673eb8f08a975ab53e34d8a0330e0d34de942c95926333084610bfc565b61037573c7ad46e0b8a400bb3c915120d284aafba8fc47357f000000000000000000000000000000000000000000000000000000000000000084610d54565b6103b473eb8f08a975ab53e34d8a0330e0d34de942c959267f000000000000000000000000000000000000000000000000000000000000000083610d54565b604080516101608101825273c7ad46e0b8a400bb3c915120d284aafba8fc4735815273eb8f08a975ab53e34d8a0330e0d34de942c959266020820152610bb881830152620d89e7196060820152620d89e8608082015260a0810184905260c08101839052600060e0820181905261010082015230610120820152426101408201529051634418b22b60e11b81527f00000000000000000000000000000000000000000000000000000000000000006001600160a01b031690638831645690610480908490600401611453565b608060405180830381600087803b15801561049a57600080fd5b505af11580156104ae573d6000803e3d6000fd5b505050506040513d601f19601f820116820180604052508101906104d2919061115c565b929950909750955093506104e63388610a36565b828510156105525761052e73c7ad46e0b8a400bb3c915120d284aafba8fc47357f00000000000000000000000000000000000000000000000000000000000000006000610d54565b84830361055073c7ad46e0b8a400bb3c915120d284aafba8fc47353383610ea2565b505b818410156105be5761059a73eb8f08a975ab53e34d8a0330e0d34de942c959267f00000000000000000000000000000000000000000000000000000000000000006000610d54565b8382036105bc73eb8f08a975ab53e34d8a0330e0d34de942c959263383610ea2565b505b50505090919293565b604080516080810182528281523060208201526001600160801b038183018190526060820152905163fc6f786560e01b815260009182917f00000000000000000000000000000000000000000000000000000000000000006001600160a01b03169063fc6f78659061063d908490600401611389565b6040805180830381600087803b15801561065657600080fd5b505af115801561066a573d6000803e3d6000fd5b505050506040513d601f19601f8201168201806040525081019061068e9190611197565b909350915061069e848484610fe9565b50915091565b600083815260208190526040812060020154819081906106cf906001600160a01b0316333088610bfc565b6000868152602081905260409020600301546106f6906001600160a01b0316333087610bfc565b60008681526020819052604090206002015461073c906001600160a01b03167f000000000000000000000000000000000000000000000000000000000000000087610d54565b600086815260208190526040902060030154610782906001600160a01b03167f000000000000000000000000000000000000000000000000000000000000000086610d54565b6040805160c0810182528781526020810187905280820186905260006060820181905260808201524260a0820152905163219f5d1760e01b81526001600160a01b037f0000000000000000000000000000000000000000000000000000000000000000169063219f5d17906107fb90849060040161140f565b606060405180830381600087803b15801561081557600080fd5b505af1158015610829573d6000803e3d6000fd5b505050506040513d601f19601f8201168201806040525081019061084d9190611110565b9199909850909650945050505050565b60008181526020819052604081205481906001600160a01b031633146108955760405162461bcd60e51b81526004016101f390611362565b6000838152602081905260408120600101546001600160801b03169060028204905060006040518060a00160405280878152602001836001600160801b0316815260200160008152602001600081526020014281525090507f00000000000000000000000000000000000000000000000000000000000000006001600160a01b0316630c49ccbe826040518263ffffffff1660e01b815260040161093991906113cc565b6040805180830381600087803b15801561095257600080fd5b505af1158015610966573d6000803e3d6000fd5b505050506040513d601f19601f8201168201806040525081019061098a9190611197565b909550935061099a868686610fe9565b505050915091565b73eb8f08a975ab53e34d8a0330e0d34de942c9592681565b60006020819052908152604090208054600182015460028301546003909301546001600160a01b03928316936001600160801b0390921692918216911684565b7f000000000000000000000000000000000000000000000000000000000000000081565b73c7ad46e0b8a400bb3c915120d284aafba8fc473581565b60008060007f00000000000000000000000000000000000000000000000000000000000000006001600160a01b03166399fbab88856040518263ffffffff1660e01b8152600401610a879190611532565b6101806040518083038186803b158015610aa057600080fd5b505afa158015610ab4573d6000803e3d6000fd5b505050506040513d601f19601f82011682018060405250810190610ad891906111e5565b5050505097505050509450945050506040518060800160405280866001600160a01b03168152602001826001600160801b03168152602001846001600160a01b03168152602001836001600160a01b031681525060008086815260200190815260200160002060008201518160000160006101000a8154816001600160a01b0302191690836001600160a01b0316021790555060208201518160010160006101000a8154816001600160801b0302191690836001600160801b0316021790555060408201518160020160006101000a8154816001600160a01b0302191690836001600160a01b0316021790555060608201518160030160006101000a8154816001600160a01b0302191690836001600160a01b031602179055509050505050505050565b604080516001600160a01b0385811660248301528481166044830152606480830185905283518084039091018152608490920183526020820180516001600160e01b03166323b872dd60e01b178152925182516000948594938a169392918291908083835b60208310610c805780518252601f199092019160209182019101610c61565b6001836020036101000a0380198251168184511680821785525050505050509050019150506000604051808303816000865af19150503d8060008114610ce2576040519150601f19603f3d011682016040523d82523d6000602084013e610ce7565b606091505b5091509150818015610d15575080511580610d155750808060200190516020811015610d1257600080fd5b50515b610d4c576040805162461bcd60e51b815260206004820152600360248201526229aa2360e91b604482015290519081900360640190fd5b505050505050565b604080516001600160a01b038481166024830152604480830185905283518084039091018152606490920183526020820180516001600160e01b031663095ea7b360e01b1781529251825160009485949389169392918291908083835b60208310610dd05780518252601f199092019160209182019101610db1565b6001836020036101000a0380198251168184511680821785525050505050509050019150506000604051808303816000865af19150503d8060008114610e32576040519150601f19603f3d011682016040523d82523d6000602084013e610e37565b606091505b5091509150818015610e65575080511580610e655750808060200190516020811015610e6257600080fd5b50515b610e9b576040805162461bcd60e51b8152602060048201526002602482015261534160f01b604482015290519081900360640190fd5b5050505050565b604080516001600160a01b038481166024830152604480830185905283518084039091018152606490920183526020820180516001600160e01b031663a9059cbb60e01b1781529251825160009485949389169392918291908083835b60208310610f1e5780518252601f199092019160209182019101610eff565b6001836020036101000a0380198251168184511680821785525050505050509050019150506000604051808303816000865af19150503d8060008114610f80576040519150601f19603f3d011682016040523d82523d6000602084013e610f85565b606091505b5091509150818015610fb3575080511580610fb35750808060200190516020811015610fb057600080fd5b50515b610e9b576040805162461bcd60e51b815260206004820152600260248201526114d560f21b604482015290519081900360640190fd5b6000838152602081905260409020805460028201546003909201546001600160a01b03918216928216911661101f828487610ea2565b610d4c818486610ea2565b80516110358161156d565b919050565b8051600281900b811461103557600080fd5b80516001600160801b038116811461103557600080fd5b805162ffffff8116811461103557600080fd5b60008060008060006080868803121561108d578081fd5b85356110988161156d565b945060208601356110a88161156d565b935060408601359250606086013567ffffffffffffffff808211156110cb578283fd5b818801915088601f8301126110de578283fd5b8135818111156110ec578384fd5b8960208285010111156110fd578384fd5b9699959850939650602001949392505050565b600080600060608486031215611124578283fd5b61112d8461104c565b925060208401519150604084015190509250925092565b600060208284031215611155578081fd5b5035919050565b60008060008060808587031215611171578384fd5b845193506111816020860161104c565b6040860151606090960151949790965092505050565b600080604083850312156111a9578182fd5b505080516020909101519092909150565b6000806000606084860312156111ce578283fd5b505081359360208301359350604090920135919050565b6000806000806000806000806000806000806101808d8f031215611207578687fd5b8c516bffffffffffffffffffffffff81168114611222578788fd5b9b5061123060208e0161102a565b9a5061123e60408e0161102a565b995061124c60608e0161102a565b985061125a60808e01611063565b975061126860a08e0161103a565b965061127660c08e0161103a565b955061128460e08e0161104c565b94506101008d015193506101208d015192506112a36101408e0161104c565b91506112b26101608e0161104c565b90509295989b509295989b509295989b565b6001600160a01b03169052565b60020b9052565b62ffffff169052565b6001600160a01b0391909116815260200190565b6001600160a01b039384168152919092166020820152604081019190915260600190565b6001600160a01b0394851681526001600160801b039390931660208401529083166040830152909116606082015260800190565b6001600160e01b031991909116815260200190565b6020808252600d908201526c2737ba103a34329037bbb732b960991b604082015260600190565b815181526020808301516001600160a01b0316908201526040808301516001600160801b0390811691830191909152606092830151169181019190915260800190565b600060a082019050825182526001600160801b03602084015116602083015260408301516040830152606083015160608301526080830151608083015292915050565b600060c082019050825182526020830151602083015260408301516040830152606083015160608301526080830151608083015260a083015160a083015292915050565b6000610160820190506114678284516112c4565b602083015161147960208401826112c4565b50604083015161148c60408401826112d8565b50606083015161149f60608401826112d1565b5060808301516114b260808401826112d1565b5060a083015160a083015260c083015160c083015260e083015160e0830152610100808401518184015250610120808401516114f0828501826112c4565b505061014092830151919092015290565b6001600160801b039390931683526020830191909152604082015260600190565b62ffffff91909116815260200190565b90815260200190565b9384526001600160801b039290921660208401526040830152606082015260800190565b918252602082015260400190565b6001600160a01b038116811461158257600080fd5b5056fea264697066735822122043ad8af01779959cf9e2f67ad89fa90abdaebade752425ecdc83c208ad4f13ea64736f6c63430007060033","bytecodeSha1":"890577dbf3ab0f2aacf9b640cd6a437d110c47d0","compiler":{"evm_version":"istanbul","optimizer":{"enabled":true,"runs":200},"version":"0.7.6+commit.7338295f"},"contractName":"MockMint","language":"Solidity","natspec":{"kind":"dev","methods":{"collectAllFees(uint256)":{"details":"The contract must hold the erc721 token before it can collect fees","notice":"Collects the fees associated with provided liquidity","params":{"tokenId":"The id of the erc721 token"},"returns":{"amount0":"The amount of fees collected in token0","amount1":"The amount of fees collected in token1"}},"decreaseLiquidityInHalf(uint256)":{"notice":"A function that decreases the current liquidity by half. An example to show how to call the `decreaseLiquidity` function defined in periphery.","params":{"tokenId":"The id of the erc721 token"},"returns":{"amount0":"The amount received back in token0","amount1":"The amount returned back in token1"}},"increaseLiquidityCurrentRange(uint256,uint256,uint256)":{"details":"Pool must be initialized already to add liquidity","notice":"Increases liquidity in the current range","params":{"amount0":"The amount to add of token0","amount1":"The amount to add of token1","tokenId":"The id of the erc721 token"}},"mintNewPosition()":{"notice":"Calls the mint function defined in periphery, mints the same amount of each token. For this example we are providing 1000 DAI and 1000 USDC in liquidity","returns":{"amount0":"The amount of token0","amount1":"The amount of token1","liquidity":"The amount of liquidity for the position","tokenId":"The id of the newly minted ERC721"}},"retrieveNFT(uint256)":{"notice":"Transfers the NFT to the owner","params":{"tokenId":"The id of the erc721"}}},"stateVariables":{"deposits":{"details":"deposits[tokenId] => Deposit"}},"version":1},"opcodes":"PUSH1 0x80 PUSH1 0x40 MSTORE CALLVALUE DUP1 ISZERO PUSH2 0x10 JUMPI PUSH1 0x0 DUP1 REVERT JUMPDEST POP PUSH1 0x4 CALLDATASIZE LT PUSH2 0xA9 JUMPI PUSH1 0x0 CALLDATALOAD PUSH1 0xE0 SHR DUP1 PUSH4 0x617D6D6E GT PUSH2 0x71 JUMPI DUP1 PUSH4 0x617D6D6E EQ PUSH2 0x13A JUMPI DUP1 PUSH4 0x8187B4C5 EQ PUSH2 0x15C JUMPI DUP1 PUSH4 0x89A30271 EQ PUSH2 0x16F JUMPI DUP1 PUSH4 0xB02C43D0 EQ PUSH2 0x184 JUMPI DUP1 PUSH4 0xB44A2722 EQ PUSH2 0x1A7 JUMPI DUP1 PUSH4 0xE0BAB4C4 EQ PUSH2 0x1AF JUMPI PUSH2 0xA9 JUMP JUMPDEST DUP1 PUSH4 0x89FE6AA EQ PUSH2 0xAE JUMPI DUP1 PUSH4 0xA1D7C5F EQ PUSH2 0xCC JUMPI DUP1 PUSH4 0x150B7A02 EQ PUSH2 0xE1 JUMPI DUP1 PUSH4 0x306D9C61 EQ PUSH2 0x101 JUMPI DUP1 PUSH4 0x46CE96DD EQ PUSH2 0x119 JUMPI JUMPDEST PUSH1 0x0 DUP1 REVERT JUMPDEST PUSH2 0xB6 PUSH2 0x1B7 JUMP JUMPDEST PUSH1 0x40 MLOAD PUSH2 0xC3 SWAP2 SWAP1 PUSH2 0x1522 JUMP JUMPDEST PUSH1 0x40 MLOAD DUP1 SWAP2 SUB SWAP1 RETURN JUMPDEST PUSH2 0xDF PUSH2 0xDA CALLDATASIZE PUSH1 0x4 PUSH2 0x1144 JUMP JUMPDEST PUSH2 0x1BD JUMP JUMPDEST STOP JUMPDEST PUSH2 0xF4 PUSH2 0xEF CALLDATASIZE PUSH1 0x4 PUSH2 0x1076 JUMP JUMPDEST PUSH2 0x2CF JUMP JUMPDEST PUSH1 0x40 MLOAD PUSH2 0xC3 SWAP2 SWAP1 PUSH2 0x134D JUMP JUMPDEST PUSH2 0x109 PUSH2 0x2ED JUMP JUMPDEST PUSH1 0x40 MLOAD PUSH2 0xC3 SWAP5 SWAP4 SWAP3 SWAP2 SWAP1 PUSH2 0x153B JUMP JUMPDEST PUSH2 0x12C PUSH2 0x127 CALLDATASIZE PUSH1 0x4 PUSH2 0x1144 JUMP JUMPDEST PUSH2 0x5C7 JUMP JUMPDEST PUSH1 0x40 MLOAD PUSH2 0xC3 SWAP3 SWAP2 SWAP1 PUSH2 0x155F JUMP JUMPDEST PUSH2 0x14D PUSH2 0x148 CALLDATASIZE PUSH1 0x4 PUSH2 0x11BA JUMP JUMPDEST PUSH2 0x6A4 JUMP JUMPDEST PUSH1 0x40 MLOAD PUSH2 0xC3 SWAP4 SWAP3 SWAP2 SWAP1 PUSH2 0x1501 JUMP JUMPDEST PUSH2 0x12C PUSH2 0x16A CALLDATASIZE PUSH1 0x4 PUSH2 0x1144 JUMP JUMPDEST PUSH2 0x85D JUMP JUMPDEST PUSH2 0x177 PUSH2 0x9A2 JUMP JUMPDEST PUSH1 0x40 MLOAD PUSH2 0xC3 SWAP2 SWAP1 PUSH2 0x12E1 JUMP JUMPDEST PUSH2 0x197 PUSH2 0x192 CALLDATASIZE PUSH1 0x4 PUSH2 0x1144 JUMP JUMPDEST PUSH2 0x9BA JUMP JUMPDEST PUSH1 0x40 MLOAD PUSH2 0xC3 SWAP5 SWAP4 SWAP3 SWAP2 SWAP1 PUSH2 0x1319 JUMP JUMPDEST PUSH2 0x177 PUSH2 0x9FA JUMP JUMPDEST PUSH2 0x177 PUSH2 0xA1E JUMP JUMPDEST PUSH2 0xBB8 DUP2 JUMP JUMPDEST PUSH1 0x0 DUP2 DUP2 MSTORE PUSH1 0x20 DUP2 SWAP1 MSTORE PUSH1 0x40 SWAP1 KECCAK256 SLOAD PUSH1 0x1 PUSH1 0x1 PUSH1 0xA0 SHL SUB AND CALLER EQ PUSH2 0x1FC JUMPI PUSH1 0x40 MLOAD PUSH3 0x461BCD PUSH1 0xE5 SHL DUP2 MSTORE PUSH1 0x4 ADD PUSH2 0x1F3 SWAP1 PUSH2 0x1362 JUMP JUMPDEST PUSH1 0x40 MLOAD DUP1 SWAP2 SUB SWAP1 REVERT JUMPDEST PUSH1 0x40 MLOAD PUSH4 0x21421707 PUSH1 0xE1 SHL DUP2 MSTORE PUSH1 0x1 PUSH1 0x1 PUSH1 0xA0 SHL SUB PUSH32 0x0 AND SWAP1 PUSH4 0x42842E0E SWAP1 PUSH2 0x24C SWAP1 ADDRESS SWAP1 CALLER SWAP1 DUP7 SWAP1 PUSH1 0x4 ADD PUSH2 0x12F5 JUMP JUMPDEST PUSH1 0x0 PUSH1 0x40 MLOAD DUP1 DUP4 SUB DUP2 PUSH1 0x0 DUP8 DUP1 EXTCODESIZE ISZERO DUP1 ISZERO PUSH2 0x266 JUMPI PUSH1 0x0 DUP1 REVERT JUMPDEST POP GAS CALL ISZERO DUP1 ISZERO PUSH2 0x27A JUMPI RETURNDATASIZE PUSH1 0x0 DUP1 RETURNDATACOPY RETURNDATASIZE PUSH1 0x0 REVERT JUMPDEST POP POP POP PUSH1 0x0 SWAP2 DUP3 MSTORE POP PUSH1 0x20 DUP2 SWAP1 MSTORE PUSH1 0x40 SWAP1 KECCAK256 DUP1 SLOAD PUSH1 0x1 PUSH1 0x1 PUSH1 0xA0 SHL SUB NOT SWAP1 DUP2 AND DUP3 SSTORE PUSH1 0x1 DUP3 ADD DUP1 SLOAD PUSH16 0xFFFFFFFFFFFFFFFFFFFFFFFFFFFFFFFF NOT AND SWAP1 SSTORE PUSH1 0x2 DUP3 ADD DUP1 SLOAD DUP3 AND SWAP1 SSTORE PUSH1 0x3 SWAP1 SWAP2 ADD DUP1 SLOAD SWAP1 SWAP2 AND SWAP1 SSTORE JUMP JUMPDEST PUSH1 0x0 PUSH2 0x2DB DUP7 DUP6 PUSH2 0xA36 JUMP JUMPDEST POP PUSH4 0xA85BD01 PUSH1 0xE1 SHL SWAP6 SWAP5 POP POP POP POP POP JUMP JUMPDEST PUSH1 0x0 DUP1 DUP1 DUP1 PUSH2 0x3E8 DUP1 PUSH2 0x316 PUSH20 0xC7AD46E0B8A400BB3C915120D284AAFBA8FC4735 CALLER ADDRESS DUP5 PUSH2 0xBFC JUMP JUMPDEST PUSH2 0x336 PUSH20 0xEB8F08A975AB53E34D8A0330E0D34DE942C95926 CALLER ADDRESS DUP5 PUSH2 0xBFC JUMP JUMPDEST PUSH2 0x375 PUSH20 0xC7AD46E0B8A400BB3C915120D284AAFBA8FC4735 PUSH32 0x0 DUP5 PUSH2 0xD54 JUMP JUMPDEST PUSH2 0x3B4 PUSH20 0xEB8F08A975AB53E34D8A0330E0D34DE942C95926 PUSH32 0x0 DUP4 PUSH2 0xD54 JUMP JUMPDEST PUSH1 0x40 DUP1 MLOAD PUSH2 0x160 DUP2 ADD DUP3 MSTORE PUSH20 0xC7AD46E0B8A400BB3C915120D284AAFBA8FC4735 DUP2 MSTORE PUSH20 0xEB8F08A975AB53E34D8A0330E0D34DE942C95926 PUSH1 0x20 DUP3 ADD MSTORE PUSH2 0xBB8 DUP2 DUP4 ADD MSTORE PUSH3 0xD89E7 NOT PUSH1 0x60 DUP3 ADD MSTORE PUSH3 0xD89E8 PUSH1 0x80 DUP3 ADD MSTORE PUSH1 0xA0 DUP2 ADD DUP5 SWAP1 MSTORE PUSH1 0xC0 DUP2 ADD DUP4 SWAP1 MSTORE PUSH1 0x0 PUSH1 0xE0 DUP3 ADD DUP2 SWAP1 MSTORE PUSH2 0x100 DUP3 ADD MSTORE ADDRESS PUSH2 0x120 DUP3 ADD MSTORE TIMESTAMP PUSH2 0x140 DUP3 ADD MSTORE SWAP1 MLOAD PUSH4 0x4418B22B PUSH1 0xE1 SHL DUP2 MSTORE PUSH32 0x0 PUSH1 0x1 PUSH1 0x1 PUSH1 0xA0 SHL SUB AND SWAP1 PUSH4 0x88316456 SWAP1 PUSH2 0x480 SWAP1 DUP5 SWAP1 PUSH1 0x4 ADD PUSH2 0x1453 JUMP JUMPDEST PUSH1 0x80 PUSH1 0x40 MLOAD DUP1 DUP4 SUB DUP2 PUSH1 0x0 DUP8 DUP1 EXTCODESIZE ISZERO DUP1 ISZERO PUSH2 0x49A JUMPI PUSH1 0x0 DUP1 REVERT JUMPDEST POP GAS CALL ISZERO DUP1 ISZERO PUSH2 0x4AE JUMPI RETURNDATASIZE PUSH1 0x0 DUP1 RETURNDATACOPY RETURNDATASIZE PUSH1 0x0 REVERT JUMPDEST POP POP POP POP PUSH1 0x40 MLOAD RETURNDATASIZE PUSH1 0x1F NOT PUSH1 0x1F DUP3 ADD AND DUP3 ADD DUP1 PUSH1 0x40 MSTORE POP DUP2 ADD SWAP1 PUSH2 0x4D2 SWAP2 SWAP1 PUSH2 0x115C JUMP JUMPDEST SWAP3 SWAP10 POP SWAP1 SWAP8 POP SWAP6 POP SWAP4 POP PUSH2 0x4E6 CALLER DUP9 PUSH2 0xA36 JUMP JUMPDEST DUP3 DUP6 LT ISZERO PUSH2 0x552 JUMPI PUSH2 0x52E PUSH20 0xC7AD46E0B8A400BB3C915120D284AAFBA8FC4735 PUSH32 0x0 PUSH1 0x0 PUSH2 0xD54 JUMP JUMPDEST DUP5 DUP4 SUB PUSH2 0x550 PUSH20 0xC7AD46E0B8A400BB3C915120D284AAFBA8FC4735 CALLER DUP4 PUSH2 0xEA2 JUMP JUMPDEST POP JUMPDEST DUP2 DUP5 LT ISZERO PUSH2 0x5BE JUMPI PUSH2 0x59A PUSH20 0xEB8F08A975AB53E34D8A0330E0D34DE942C95926 PUSH32 0x0 PUSH1 0x0 PUSH2 0xD54 JUMP JUMPDEST DUP4 DUP3 SUB PUSH2 0x5BC PUSH20 0xEB8F08A975AB53E34D8A0330E0D34DE942C95926 CALLER DUP4 PUSH2 0xEA2 JUMP JUMPDEST POP JUMPDEST POP POP POP SWAP1 SWAP2 SWAP3 SWAP4 JUMP JUMPDEST PUSH1 0x40 DUP1 MLOAD PUSH1 0x80 DUP2 ADD DUP3 MSTORE DUP3 DUP2 MSTORE ADDRESS PUSH1 0x20 DUP3 ADD MSTORE PUSH1 0x1 PUSH1 0x1 PUSH1 0x80 SHL SUB DUP2 DUP4 ADD DUP2 SWAP1 MSTORE PUSH1 0x60 DUP3 ADD MSTORE SWAP1 MLOAD PUSH4 0xFC6F7865 PUSH1 0xE0 SHL DUP2 MSTORE PUSH1 0x0 SWAP2 DUP3 SWAP2 PUSH32 0x0 PUSH1 0x1 PUSH1 0x1 PUSH1 0xA0 SHL SUB AND SWAP1 PUSH4 0xFC6F7865 SWAP1 PUSH2 0x63D SWAP1 DUP5 SWAP1 PUSH1 0x4 ADD PUSH2 0x1389 JUMP JUMPDEST PUSH1 0x40 DUP1 MLOAD DUP1 DUP4 SUB DUP2 PUSH1 0x0 DUP8 DUP1 EXTCODESIZE ISZERO DUP1 ISZERO PUSH2 0x656 JUMPI PUSH1 0x0 DUP1 REVERT JUMPDEST POP GAS CALL ISZERO DUP1 ISZERO PUSH2 0x66A JUMPI RETURNDATASIZE PUSH1 0x0 DUP1 RETURNDATACOPY RETURNDATASIZE PUSH1 0x0 REVERT JUMPDEST POP POP POP POP PUSH1 0x40 MLOAD RETURNDATASIZE PUSH1 0x1F NOT PUSH1 0x1F DUP3 ADD AND DUP3 ADD DUP1 PUSH1 0x40 MSTORE POP DUP2 ADD SWAP1 PUSH2 0x68E SWAP2 SWAP1 PUSH2 0x1197 JUMP JUMPDEST SWAP1 SWAP4 POP SWAP2 POP PUSH2 0x69E DUP5 DUP5 DUP5 PUSH2 0xFE9 JUMP JUMPDEST POP SWAP2 POP SWAP2 JUMP JUMPDEST PUSH1 0x0 DUP4 DUP2 MSTORE PUSH1 0x20 DUP2 SWAP1 MSTORE PUSH1 0x40 DUP2 KECCAK256 PUSH1 0x2 ADD SLOAD DUP2 SWAP1 DUP2 SWAP1 PUSH2 0x6CF SWAP1 PUSH1 0x1 PUSH1 0x1 PUSH1 0xA0 SHL SUB AND CALLER ADDRESS DUP9 PUSH2 0xBFC JUMP JUMPDEST PUSH1 0x0 DUP7 DUP2 MSTORE PUSH1 0x20 DUP2 SWAP1 MSTORE PUSH1 0x40 SWAP1 KECCAK256 PUSH1 0x3 ADD SLOAD PUSH2 0x6F6 SWAP1 PUSH1 0x1 PUSH1 0x1 PUSH1 0xA0 SHL SUB AND CALLER ADDRESS DUP8 PUSH2 0xBFC JUMP JUMPDEST PUSH1 0x0 DUP7 DUP2 MSTORE PUSH1 0x20 DUP2 SWAP1 MSTORE PUSH1 0x40 SWAP1 KECCAK256 PUSH1 0x2 ADD SLOAD PUSH2 0x73C SWAP1 PUSH1 0x1 PUSH1 0x1 PUSH1 0xA0 SHL SUB AND PUSH32 0x0 DUP8 PUSH2 0xD54 JUMP JUMPDEST PUSH1 0x0 DUP7 DUP2 MSTORE PUSH1 0x20 DUP2 SWAP1 MSTORE PUSH1 0x40 SWAP1 KECCAK256 PUSH1 0x3 ADD SLOAD PUSH2 0x782 SWAP1 PUSH1 0x1 PUSH1 0x1 PUSH1 0xA0 SHL SUB AND PUSH32 0x0 DUP7 PUSH2 0xD54 JUMP JUMPDEST PUSH1 0x40 DUP1 MLOAD PUSH1 0xC0 DUP2 ADD DUP3 MSTORE DUP8 DUP2 MSTORE PUSH1 0x20 DUP2 ADD DUP8 SWAP1 MSTORE DUP1 DUP3 ADD DUP7 SWAP1 MSTORE PUSH1 0x0 PUSH1 0x60 DUP3 ADD DUP2 SWAP1 MSTORE PUSH1 0x80 DUP3 ADD MSTORE TIMESTAMP PUSH1 0xA0 DUP3 ADD MSTORE SWAP1 MLOAD PUSH4 0x219F5D17 PUSH1 0xE0 SHL DUP2 MSTORE PUSH1 0x1 PUSH1 0x1 PUSH1 0xA0 SHL SUB PUSH32 0x0 AND SWAP1 PUSH4 0x219F5D17 SWAP1 PUSH2 0x7FB SWAP1 DUP5 SWAP1 PUSH1 0x4 ADD PUSH2 0x140F JUMP JUMPDEST PUSH1 0x60 PUSH1 0x40 MLOAD DUP1 DUP4 SUB DUP2 PUSH1 0x0 DUP8 DUP1 EXTCODESIZE ISZERO DUP1 ISZERO PUSH2 0x815 JUMPI PUSH1 0x0 DUP1 REVERT JUMPDEST POP GAS CALL ISZERO DUP1 ISZERO PUSH2 0x829 JUMPI RETURNDATASIZE PUSH1 0x0 DUP1 RETURNDATACOPY RETURNDATASIZE PUSH1 0x0 REVERT JUMPDEST POP POP POP POP PUSH1 0x40 MLOAD RETURNDATASIZE PUSH1 0x1F NOT PUSH1 0x1F DUP3 ADD AND DUP3 ADD DUP1 PUSH1 0x40 MSTORE POP DUP2 ADD SWAP1 PUSH2 0x84D SWAP2 SWAP1 PUSH2 0x1110 JUMP JUMPDEST SWAP2 SWAP10 SWAP1 SWAP9 POP SWAP1 SWAP7 POP SWAP5 POP POP POP POP POP JUMP JUMPDEST PUSH1 0x0 DUP2 DUP2 MSTORE PUSH1 0x20 DUP2 SWAP1 MSTORE PUSH1 0x40 DUP2 KECCAK256 SLOAD DUP2 SWAP1 PUSH1 0x1 PUSH1 0x1 PUSH1 0xA0 SHL SUB AND CALLER EQ PUSH2 0x895 JUMPI PUSH1 0x40 MLOAD PUSH3 0x461BCD PUSH1 0xE5 SHL DUP2 MSTORE PUSH1 0x4 ADD PUSH2 0x1F3 SWAP1 PUSH2 0x1362 JUMP JUMPDEST PUSH1 0x0 DUP4 DUP2 MSTORE PUSH1 0x20 DUP2 SWAP1 MSTORE PUSH1 0x40 DUP2 KECCAK256 PUSH1 0x1 ADD SLOAD PUSH1 0x1 PUSH1 0x1 PUSH1 0x80 SHL SUB AND SWAP1 PUSH1 0x2 DUP3 DIV SWAP1 POP PUSH1 0x0 PUSH1 0x40 MLOAD DUP1 PUSH1 0xA0 ADD PUSH1 0x40 MSTORE DUP1 DUP8 DUP2 MSTORE PUSH1 0x20 ADD DUP4 PUSH1 0x1 PUSH1 0x1 PUSH1 0x80 SHL SUB AND DUP2 MSTORE PUSH1 0x20 ADD PUSH1 0x0 DUP2 MSTORE PUSH1 0x20 ADD PUSH1 0x0 DUP2 MSTORE PUSH1 0x20 ADD TIMESTAMP DUP2 MSTORE POP SWAP1 POP PUSH32 0x0 PUSH1 0x1 PUSH1 0x1 PUSH1 0xA0 SHL SUB AND PUSH4 0xC49CCBE DUP3 PUSH1 0x40 MLOAD DUP3 PUSH4 0xFFFFFFFF AND PUSH1 0xE0 SHL DUP2 MSTORE PUSH1 0x4 ADD PUSH2 0x939 SWAP2 SWAP1 PUSH2 0x13CC JUMP JUMPDEST PUSH1 0x40 DUP1 MLOAD DUP1 DUP4 SUB DUP2 PUSH1 0x0 DUP8 DUP1 EXTCODESIZE ISZERO DUP1 ISZERO PUSH2 0x952 JUMPI PUSH1 0x0 DUP1 REVERT JUMPDEST POP GAS CALL ISZERO DUP1 ISZERO PUSH2 0x966 JUMPI RETURNDATASIZE PUSH1 0x0 DUP1 RETURNDATACOPY RETURNDATASIZE PUSH1 0x0 REVERT JUMPDEST POP POP POP POP PUSH1 0x40 MLOAD RETURNDATASIZE PUSH1 0x1F NOT PUSH1 0x1F DUP3 ADD AND DUP3 ADD DUP1 PUSH1 0x40 MSTORE POP DUP2 ADD SWAP1 PUSH2 0x98A SWAP2 SWAP1 PUSH2 0x1197 JUMP JUMPDEST SWAP1 SWAP6 POP SWAP4 POP PUSH2 0x99A DUP7 DUP7 DUP7 PUSH2 0xFE9 JUMP JUMPDEST POP POP POP SWAP2 POP SWAP2 JUMP JUMPDEST PUSH20 0xEB8F08A975AB53E34D8A0330E0D34DE942C95926 DUP2 JUMP JUMPDEST PUSH1 0x0 PUSH1 0x20 DUP2 SWAP1 MSTORE SWAP1 DUP2 MSTORE PUSH1 0x40 SWAP1 KECCAK256 DUP1 SLOAD PUSH1 0x1 DUP3 ADD SLOAD PUSH1 0x2 DUP4 ADD SLOAD PUSH1 0x3 SWAP1 SWAP4 ADD SLOAD PUSH1 0x1 PUSH1 0x1 PUSH1 0xA0 SHL SUB SWAP3 DUP4 AND SWAP4 PUSH1 0x1 PUSH1 0x1 PUSH1 0x80 SHL SUB SWAP1 SWAP3 AND SWAP3 SWAP2 DUP3 AND SWAP2 AND DUP5 JUMP JUMPDEST PUSH32 0x0 DUP2 JUMP JUMPDEST PUSH20 0xC7AD46E0B8A400BB3C915120D284AAFBA8FC4735 DUP2 JUMP JUMPDEST PUSH1 0x0 DUP1 PUSH1 0x0 PUSH32 0x0 PUSH1 0x1 PUSH1 0x1 PUSH1 0xA0 SHL SUB AND PUSH4 0x99FBAB88 DUP6 PUSH1 0x40 MLOAD DUP3 PUSH4 0xFFFFFFFF AND PUSH1 0xE0 SHL DUP2 MSTORE PUSH1 0x4 ADD PUSH2 0xA87 SWAP2 SWAP1 PUSH2 0x1532 JUMP JUMPDEST PUSH2 0x180 PUSH1 0x40 MLOAD DUP1 DUP4 SUB DUP2 DUP7 DUP1 EXTCODESIZE ISZERO DUP1 ISZERO PUSH2 0xAA0 JUMPI PUSH1 0x0 DUP1 REVERT JUMPDEST POP GAS STATICCALL ISZERO DUP1 ISZERO PUSH2 0xAB4 JUMPI RETURNDATASIZE PUSH1 0x0 DUP1 RETURNDATACOPY RETURNDATASIZE PUSH1 0x0 REVERT JUMPDEST POP POP POP POP PUSH1 0x40 MLOAD RETURNDATASIZE PUSH1 0x1F NOT PUSH1 0x1F DUP3 ADD AND DUP3 ADD DUP1 PUSH1 0x40 MSTORE POP DUP2 ADD SWAP1 PUSH2 0xAD8 SWAP2 SWAP1 PUSH2 0x11E5 JUMP JUMPDEST POP POP POP POP SWAP8 POP POP POP POP SWAP5 POP SWAP5 POP POP POP PUSH1 0x40 MLOAD DUP1 PUSH1 0x80 ADD PUSH1 0x40 MSTORE DUP1 DUP7 PUSH1 0x1 PUSH1 0x1 PUSH1 0xA0 SHL SUB AND DUP2 MSTORE PUSH1 0x20 ADD DUP3 PUSH1 0x1 PUSH1 0x1 PUSH1 0x80 SHL SUB AND DUP2 MSTORE PUSH1 0x20 ADD DUP5 PUSH1 0x1 PUSH1 0x1 PUSH1 0xA0 SHL SUB AND DUP2 MSTORE PUSH1 0x20 ADD DUP4 PUSH1 0x1 PUSH1 0x1 PUSH1 0xA0 SHL SUB AND DUP2 MSTORE POP PUSH1 0x0 DUP1 DUP7 DUP2 MSTORE PUSH1 0x20 ADD SWAP1 DUP2 MSTORE PUSH1 0x20 ADD PUSH1 0x0 KECCAK256 PUSH1 0x0 DUP3 ADD MLOAD DUP2 PUSH1 0x0 ADD PUSH1 0x0 PUSH2 0x100 EXP DUP2 SLOAD DUP2 PUSH1 0x1 PUSH1 0x1 PUSH1 0xA0 SHL SUB MUL NOT AND SWAP1 DUP4 PUSH1 0x1 PUSH1 0x1 PUSH1 0xA0 SHL SUB AND MUL OR SWAP1 SSTORE POP PUSH1 0x20 DUP3 ADD MLOAD DUP2 PUSH1 0x1 ADD PUSH1 0x0 PUSH2 0x100 EXP DUP2 SLOAD DUP2 PUSH1 0x1 PUSH1 0x1 PUSH1 0x80 SHL SUB MUL NOT AND SWAP1 DUP4 PUSH1 0x1 PUSH1 0x1 PUSH1 0x80 SHL SUB AND MUL OR SWAP1 SSTORE POP PUSH1 0x40 DUP3 ADD MLOAD DUP2 PUSH1 0x2 ADD PUSH1 0x0 PUSH2 0x100 EXP DUP2 SLOAD DUP2 PUSH1 0x1 PUSH1 0x1 PUSH1 0xA0 SHL SUB MUL NOT AND SWAP1 DUP4 PUSH1 0x1 PUSH1 0x1 PUSH1 0xA0 SHL SUB AND MUL OR SWAP1 SSTORE POP PUSH1 0x60 DUP3 ADD MLOAD DUP2 PUSH1 0x3 ADD PUSH1 0x0 PUSH2 0x100 EXP DUP2 SLOAD DUP2 PUSH1 0x1 PUSH1 0x1 PUSH1 0xA0 SHL SUB MUL NOT AND SWAP1 DUP4 PUSH1 0x1 PUSH1 0x1 PUSH1 0xA0 SHL SUB AND MUL OR SWAP1 SSTORE POP SWAP1 POP POP POP POP POP POP POP JUMP JUMPDEST PUSH1 0x40 DUP1 MLOAD PUSH1 0x1 PUSH1 0x1 PUSH1 0xA0 SHL SUB DUP6 DUP2 AND PUSH1 0x24 DUP4 ADD MSTORE DUP5 DUP2 AND PUSH1 0x44 DUP4 ADD MSTORE PUSH1 0x64 DUP1 DUP4 ADD DUP6 SWAP1 MSTORE DUP4 MLOAD DUP1 DUP5 SUB SWAP1 SWAP2 ADD DUP2 MSTORE PUSH1 0x84 SWAP1 SWAP3 ADD DUP4 MSTORE PUSH1 0x20 DUP3 ADD DUP1 MLOAD PUSH1 0x1 PUSH1 0x1 PUSH1 0xE0 SHL SUB AND PUSH4 0x23B872DD PUSH1 0xE0 SHL OR DUP2 MSTORE SWAP3 MLOAD DUP3 MLOAD PUSH1 0x0 SWAP5 DUP6 SWAP5 SWAP4 DUP11 AND SWAP4 SWAP3 SWAP2 DUP3 SWAP2 SWAP1 DUP1 DUP4 DUP4 JUMPDEST PUSH1 0x20 DUP4 LT PUSH2 0xC80 JUMPI DUP1 MLOAD DUP3 MSTORE PUSH1 0x1F NOT SWAP1 SWAP3 ADD SWAP2 PUSH1 0x20 SWAP2 DUP3 ADD SWAP2 ADD PUSH2 0xC61 JUMP JUMPDEST PUSH1 0x1 DUP4 PUSH1 0x20 SUB PUSH2 0x100 EXP SUB DUP1 NOT DUP3 MLOAD AND DUP2 DUP5 MLOAD AND DUP1 DUP3 OR DUP6 MSTORE POP POP POP POP POP POP SWAP1 POP ADD SWAP2 POP POP PUSH1 0x0 PUSH1 0x40 MLOAD DUP1 DUP4 SUB DUP2 PUSH1 0x0 DUP7 GAS CALL SWAP2 POP POP RETURNDATASIZE DUP1 PUSH1 0x0 DUP2 EQ PUSH2 0xCE2 JUMPI PUSH1 0x40 MLOAD SWAP2 POP PUSH1 0x1F NOT PUSH1 0x3F RETURNDATASIZE ADD AND DUP3 ADD PUSH1 0x40 MSTORE RETURNDATASIZE DUP3 MSTORE RETURNDATASIZE PUSH1 0x0 PUSH1 0x20 DUP5 ADD RETURNDATACOPY PUSH2 0xCE7 JUMP JUMPDEST PUSH1 0x60 SWAP2 POP JUMPDEST POP SWAP2 POP SWAP2 POP DUP2 DUP1 ISZERO PUSH2 0xD15 JUMPI POP DUP1 MLOAD ISZERO DUP1 PUSH2 0xD15 JUMPI POP DUP1 DUP1 PUSH1 0x20 ADD SWAP1 MLOAD PUSH1 0x20 DUP2 LT ISZERO PUSH2 0xD12 JUMPI PUSH1 0x0 DUP1 REVERT JUMPDEST POP MLOAD JUMPDEST PUSH2 0xD4C JUMPI PUSH1 0x40 DUP1 MLOAD PUSH3 0x461BCD PUSH1 0xE5 SHL DUP2 MSTORE PUSH1 0x20 PUSH1 0x4 DUP3 ADD MSTORE PUSH1 0x3 PUSH1 0x24 DUP3 ADD MSTORE PUSH3 0x29AA23 PUSH1 0xE9 SHL PUSH1 0x44 DUP3 ADD MSTORE SWAP1 MLOAD SWAP1 DUP2 SWAP1 SUB PUSH1 0x64 ADD SWAP1 REVERT JUMPDEST POP POP POP POP POP POP JUMP JUMPDEST PUSH1 0x40 DUP1 MLOAD PUSH1 0x1 PUSH1 0x1 PUSH1 0xA0 SHL SUB DUP5 DUP2 AND PUSH1 0x24 DUP4 ADD MSTORE PUSH1 0x44 DUP1 DUP4 ADD DUP6 SWAP1 MSTORE DUP4 MLOAD DUP1 DUP5 SUB SWAP1 SWAP2 ADD DUP2 MSTORE PUSH1 0x64 SWAP1 SWAP3 ADD DUP4 MSTORE PUSH1 0x20 DUP3 ADD DUP1 MLOAD PUSH1 0x1 PUSH1 0x1 PUSH1 0xE0 SHL SUB AND PUSH4 0x95EA7B3 PUSH1 0xE0 SHL OR DUP2 MSTORE SWAP3 MLOAD DUP3 MLOAD PUSH1 0x0 SWAP5 DUP6 SWAP5 SWAP4 DUP10 AND SWAP4 SWAP3 SWAP2 DUP3 SWAP2 SWAP1 DUP1 DUP4 DUP4 JUMPDEST PUSH1 0x20 DUP4 LT PUSH2 0xDD0 JUMPI DUP1 MLOAD DUP3 MSTORE PUSH1 0x1F NOT SWAP1 SWAP3 ADD SWAP2 PUSH1 0x20 SWAP2 DUP3 ADD SWAP2 ADD PUSH2 0xDB1 JUMP JUMPDEST PUSH1 0x1 DUP4 PUSH1 0x20 SUB PUSH2 0x100 EXP SUB DUP1 NOT DUP3 MLOAD AND DUP2 DUP5 MLOAD AND DUP1 DUP3 OR DUP6 MSTORE POP POP POP POP POP POP SWAP1 POP ADD SWAP2 POP POP PUSH1 0x0 PUSH1 0x40 MLOAD DUP1 DUP4 SUB DUP2 PUSH1 0x0 DUP7 GAS CALL SWAP2 POP POP RETURNDATASIZE DUP1 PUSH1 0x0 DUP2 EQ PUSH2 0xE32 JUMPI PUSH1 0x40 MLOAD SWAP2 POP PUSH1 0x1F NOT PUSH1 0x3F RETURNDATASIZE ADD AND DUP3 ADD PUSH1 0x40 MSTORE RETURNDATASIZE DUP3 MSTORE RETURNDATASIZE PUSH1 0x0 PUSH1 0x20 DUP5 ADD RETURNDATACOPY PUSH2 0xE37 JUMP JUMPDEST PUSH1 0x60 SWAP2 POP JUMPDEST POP SWAP2 POP SWAP2 POP DUP2 DUP1 ISZERO PUSH2 0xE65 JUMPI POP DUP1 MLOAD ISZERO DUP1 PUSH2 0xE65 JUMPI POP DUP1 DUP1 PUSH1 0x20 ADD SWAP1 MLOAD PUSH1 0x20 DUP2 LT ISZERO PUSH2 0xE62 JUMPI PUSH1 0x0 DUP1 REVERT JUMPDEST POP MLOAD JUMPDEST PUSH2 0xE9B JUMPI PUSH1 0x40 DUP1 MLOAD PUSH3 0x461BCD PUSH1 0xE5 SHL DUP2 MSTORE PUSH1 0x20 PUSH1 0x4 DUP3 ADD MSTORE PUSH1 0x2 PUSH1 0x24 DUP3 ADD MSTORE PUSH2 0x5341 PUSH1 0xF0 SHL PUSH1 0x44 DUP3 ADD MSTORE SWAP1 MLOAD SWAP1 DUP2 SWAP1 SUB PUSH1 0x64 ADD SWAP1 REVERT JUMPDEST POP POP POP POP POP JUMP JUMPDEST PUSH1 0x40 DUP1 MLOAD PUSH1 0x1 PUSH1 0x1 PUSH1 0xA0 SHL SUB DUP5 DUP2 AND PUSH1 0x24 DUP4 ADD MSTORE PUSH1 0x44 DUP1 DUP4 ADD DUP6 SWAP1 MSTORE DUP4 MLOAD DUP1 DUP5 SUB SWAP1 SWAP2 ADD DUP2 MSTORE PUSH1 0x64 SWAP1 SWAP3 ADD DUP4 MSTORE PUSH1 0x20 DUP3 ADD DUP1 MLOAD PUSH1 0x1 PUSH1 0x1 PUSH1 0xE0 SHL SUB AND PUSH4 0xA9059CBB PUSH1 0xE0 SHL OR DUP2 MSTORE SWAP3 MLOAD DUP3 MLOAD PUSH1 0x0 SWAP5 DUP6 SWAP5 SWAP4 DUP10 AND SWAP4 SWAP3 SWAP2 DUP3 SWAP2 SWAP1 DUP1 DUP4 DUP4 JUMPDEST PUSH1 0x20 DUP4 LT PUSH2 0xF1E JUMPI DUP1 MLOAD DUP3 MSTORE PUSH1 0x1F NOT SWAP1 SWAP3 ADD SWAP2 PUSH1 0x20 SWAP2 DUP3 ADD SWAP2 ADD PUSH2 0xEFF JUMP JUMPDEST PUSH1 0x1 DUP4 PUSH1 0x20 SUB PUSH2 0x100 EXP SUB DUP1 NOT DUP3 MLOAD AND DUP2 DUP5 MLOAD AND DUP1 DUP3 OR DUP6 MSTORE POP POP POP POP POP POP SWAP1 POP ADD SWAP2 POP POP PUSH1 0x0 PUSH1 0x40 MLOAD DUP1 DUP4 SUB DUP2 PUSH1 0x0 DUP7 GAS CALL SWAP2 POP POP RETURNDATASIZE DUP1 PUSH1 0x0 DUP2 EQ PUSH2 0xF80 JUMPI PUSH1 0x40 MLOAD SWAP2 POP PUSH1 0x1F NOT PUSH1 0x3F RETURNDATASIZE ADD AND DUP3 ADD PUSH1 0x40 MSTORE RETURNDATASIZE DUP3 MSTORE RETURNDATASIZE PUSH1 0x0 PUSH1 0x20 DUP5 ADD RETURNDATACOPY PUSH2 0xF85 JUMP JUMPDEST PUSH1 0x60 SWAP2 POP JUMPDEST POP SWAP2 POP SWAP2 POP DUP2 DUP1 ISZERO PUSH2 0xFB3 JUMPI POP DUP1 MLOAD ISZERO DUP1 PUSH2 0xFB3 JUMPI POP DUP1 DUP1 PUSH1 0x20 ADD SWAP1 MLOAD PUSH1 0x20 DUP2 LT ISZERO PUSH2 0xFB0 JUMPI PUSH1 0x0 DUP1 REVERT JUMPDEST POP MLOAD JUMPDEST PUSH2 0xE9B JUMPI PUSH1 0x40 DUP1 MLOAD PUSH3 0x461BCD PUSH1 0xE5 SHL DUP2 MSTORE PUSH1 0x20 PUSH1 0x4 DUP3 ADD MSTORE PUSH1 0x2 PUSH1 0x24 DUP3 ADD MSTORE PUSH2 0x14D5 PUSH1 0xF2 SHL PUSH1 0x44 DUP3 ADD MSTORE SWAP1 MLOAD SWAP1 DUP2 SWAP1 SUB PUSH1 0x64 ADD SWAP1 REVERT JUMPDEST PUSH1 0x0 DUP4 DUP2 MSTORE PUSH1 0x20 DUP2 SWAP1 MSTORE PUSH1 0x40 SWAP1 KECCAK256 DUP1 SLOAD PUSH1 0x2 DUP3 ADD SLOAD PUSH1 0x3 SWAP1 SWAP3 ADD SLOAD PUSH1 0x1 PUSH1 0x1 PUSH1 0xA0 SHL SUB SWAP2 DUP3 AND SWAP3 DUP3 AND SWAP2 AND PUSH2 0x101F DUP3 DUP5 DUP8 PUSH2 0xEA2 JUMP JUMPDEST PUSH2 0xD4C DUP2 DUP5 DUP7 PUSH2 0xEA2 JUMP JUMPDEST DUP1 MLOAD PUSH2 0x1035 DUP2 PUSH2 0x156D JUMP JUMPDEST SWAP2 SWAP1 POP JUMP JUMPDEST DUP1 MLOAD PUSH1 0x2 DUP2 SWAP1 SIGNEXTEND DUP2 EQ PUSH2 0x1035 JUMPI PUSH1 0x0 DUP1 REVERT JUMPDEST DUP1 MLOAD PUSH1 0x1 PUSH1 0x1 PUSH1 0x80 SHL SUB DUP2 AND DUP2 EQ PUSH2 0x1035 JUMPI PUSH1 0x0 DUP1 REVERT JUMPDEST DUP1 MLOAD PUSH3 0xFFFFFF DUP2 AND DUP2 EQ PUSH2 0x1035 JUMPI PUSH1 0x0 DUP1 REVERT JUMPDEST PUSH1 0x0 DUP1 PUSH1 0x0 DUP1 PUSH1 0x0 PUSH1 0x80 DUP7 DUP9 SUB SLT ISZERO PUSH2 0x108D JUMPI DUP1 DUP2 REVERT JUMPDEST DUP6 CALLDATALOAD PUSH2 0x1098 DUP2 PUSH2 0x156D JUMP JUMPDEST SWAP5 POP PUSH1 0x20 DUP7 ADD CALLDATALOAD PUSH2 0x10A8 DUP2 PUSH2 0x156D JUMP JUMPDEST SWAP4 POP PUSH1 0x40 DUP7 ADD CALLDATALOAD SWAP3 POP PUSH1 0x60 DUP7 ADD CALLDATALOAD PUSH8 0xFFFFFFFFFFFFFFFF DUP1 DUP3 GT ISZERO PUSH2 0x10CB JUMPI DUP3 DUP4 REVERT JUMPDEST DUP2 DUP9 ADD SWAP2 POP DUP9 PUSH1 0x1F DUP4 ADD SLT PUSH2 0x10DE JUMPI DUP3 DUP4 REVERT JUMPDEST DUP2 CALLDATALOAD DUP2 DUP2 GT ISZERO PUSH2 0x10EC JUMPI DUP4 DUP5 REVERT JUMPDEST DUP10 PUSH1 0x20 DUP3 DUP6 ADD ADD GT ISZERO PUSH2 0x10FD JUMPI DUP4 DUP5 REVERT JUMPDEST SWAP7 SWAP10 SWAP6 SWAP9 POP SWAP4 SWAP7 POP PUSH1 0x20 ADD SWAP5 SWAP4 SWAP3 POP POP POP JUMP JUMPDEST PUSH1 0x0 DUP1 PUSH1 0x0 PUSH1 0x60 DUP5 DUP7 SUB SLT ISZERO PUSH2 0x1124 JUMPI DUP3 DUP4 REVERT JUMPDEST PUSH2 0x112D DUP5 PUSH2 0x104C JUMP JUMPDEST SWAP3 POP PUSH1 0x20 DUP5 ADD MLOAD SWAP2 POP PUSH1 0x40 DUP5 ADD MLOAD SWAP1 POP SWAP3 POP SWAP3 POP SWAP3 JUMP JUMPDEST PUSH1 0x0 PUSH1 0x20 DUP3 DUP5 SUB SLT ISZERO PUSH2 0x1155 JUMPI DUP1 DUP2 REVERT JUMPDEST POP CALLDATALOAD SWAP2 SWAP1 POP JUMP JUMPDEST PUSH1 0x0 DUP1 PUSH1 0x0 DUP1 PUSH1 0x80 DUP6 DUP8 SUB SLT ISZERO PUSH2 0x1171 JUMPI DUP4 DUP5 REVERT JUMPDEST DUP5 MLOAD SWAP4 POP PUSH2 0x1181 PUSH1 0x20 DUP7 ADD PUSH2 0x104C JUMP JUMPDEST PUSH1 0x40 DUP7 ADD MLOAD PUSH1 0x60 SWAP1 SWAP7 ADD MLOAD SWAP5 SWAP8 SWAP1 SWAP7 POP SWAP3 POP POP POP JUMP JUMPDEST PUSH1 0x0 DUP1 PUSH1 0x40 DUP4 DUP6 SUB SLT ISZERO PUSH2 0x11A9 JUMPI DUP2 DUP3 REVERT JUMPDEST POP POP DUP1 MLOAD PUSH1 0x20 SWAP1 SWAP2 ADD MLOAD SWAP1 SWAP3 SWAP1 SWAP2 POP JUMP JUMPDEST PUSH1 0x0 DUP1 PUSH1 0x0 PUSH1 0x60 DUP5 DUP7 SUB SLT ISZERO PUSH2 0x11CE JUMPI DUP3 DUP4 REVERT JUMPDEST POP POP DUP2 CALLDATALOAD SWAP4 PUSH1 0x20 DUP4 ADD CALLDATALOAD SWAP4 POP PUSH1 0x40 SWAP1 SWAP3 ADD CALLDATALOAD SWAP2 SWAP1 POP JUMP JUMPDEST PUSH1 0x0 DUP1 PUSH1 0x0 DUP1 PUSH1 0x0 DUP1 PUSH1 0x0 DUP1 PUSH1 0x0 DUP1 PUSH1 0x0 DUP1 PUSH2 0x180 DUP14 DUP16 SUB SLT ISZERO PUSH2 0x1207 JUMPI DUP7 DUP8 REVERT JUMPDEST DUP13 MLOAD PUSH12 0xFFFFFFFFFFFFFFFFFFFFFFFF DUP2 AND DUP2 EQ PUSH2 0x1222 JUMPI DUP8 DUP9 REVERT JUMPDEST SWAP12 POP PUSH2 0x1230 PUSH1 0x20 DUP15 ADD PUSH2 0x102A JUMP JUMPDEST SWAP11 POP PUSH2 0x123E PUSH1 0x40 DUP15 ADD PUSH2 0x102A JUMP JUMPDEST SWAP10 POP PUSH2 0x124C PUSH1 0x60 DUP15 ADD PUSH2 0x102A JUMP JUMPDEST SWAP9 POP PUSH2 0x125A PUSH1 0x80 DUP15 ADD PUSH2 0x1063 JUMP JUMPDEST SWAP8 POP PUSH2 0x1268 PUSH1 0xA0 DUP15 ADD PUSH2 0x103A JUMP JUMPDEST SWAP7 POP PUSH2 0x1276 PUSH1 0xC0 DUP15 ADD PUSH2 0x103A JUMP JUMPDEST SWAP6 POP PUSH2 0x1284 PUSH1 0xE0 DUP15 ADD PUSH2 0x104C JUMP JUMPDEST SWAP5 POP PUSH2 0x100 DUP14 ADD MLOAD SWAP4 POP PUSH2 0x120 DUP14 ADD MLOAD SWAP3 POP PUSH2 0x12A3 PUSH2 0x140 DUP15 ADD PUSH2 0x104C JUMP JUMPDEST SWAP2 POP PUSH2 0x12B2 PUSH2 0x160 DUP15 ADD PUSH2 0x104C JUMP JUMPDEST SWAP1 POP SWAP3 SWAP6 SWAP9 SWAP12 POP SWAP3 SWAP6 SWAP9 SWAP12 POP SWAP3 SWAP6 SWAP9 SWAP12 JUMP JUMPDEST PUSH1 0x1 PUSH1 0x1 PUSH1 0xA0 SHL SUB AND SWAP1 MSTORE JUMP JUMPDEST PUSH1 0x2 SIGNEXTEND SWAP1 MSTORE JUMP JUMPDEST PUSH3 0xFFFFFF AND SWAP1 MSTORE JUMP JUMPDEST PUSH1 0x1 PUSH1 0x1 PUSH1 0xA0 SHL SUB SWAP2 SWAP1 SWAP2 AND DUP2 MSTORE PUSH1 0x20 ADD SWAP1 JUMP JUMPDEST PUSH1 0x1 PUSH1 0x1 PUSH1 0xA0 SHL SUB SWAP4 DUP5 AND DUP2 MSTORE SWAP2 SWAP1 SWAP3 AND PUSH1 0x20 DUP3 ADD MSTORE PUSH1 0x40 DUP2 ADD SWAP2 SWAP1 SWAP2 MSTORE PUSH1 0x60 ADD SWAP1 JUMP JUMPDEST PUSH1 0x1 PUSH1 0x1 PUSH1 0xA0 SHL SUB SWAP5 DUP6 AND DUP2 MSTORE PUSH1 0x1 PUSH1 0x1 PUSH1 0x80 SHL SUB SWAP4 SWAP1 SWAP4 AND PUSH1 0x20 DUP5 ADD MSTORE SWAP1 DUP4 AND PUSH1 0x40 DUP4 ADD MSTORE SWAP1 SWAP2 AND PUSH1 0x60 DUP3 ADD MSTORE PUSH1 0x80 ADD SWAP1 JUMP JUMPDEST PUSH1 0x1 PUSH1 0x1 PUSH1 0xE0 SHL SUB NOT SWAP2 SWAP1 SWAP2 AND DUP2 MSTORE PUSH1 0x20 ADD SWAP1 JUMP JUMPDEST PUSH1 0x20 DUP1 DUP3 MSTORE PUSH1 0xD SWAP1 DUP3 ADD MSTORE PUSH13 0x2737BA103A34329037BBB732B9 PUSH1 0x99 SHL PUSH1 0x40 DUP3 ADD MSTORE PUSH1 0x60 ADD SWAP1 JUMP JUMPDEST DUP2 MLOAD DUP2 MSTORE PUSH1 0x20 DUP1 DUP4 ADD MLOAD PUSH1 0x1 PUSH1 0x1 PUSH1 0xA0 SHL SUB AND SWAP1 DUP3 ADD MSTORE PUSH1 0x40 DUP1 DUP4 ADD MLOAD PUSH1 0x1 PUSH1 0x1 PUSH1 0x80 SHL SUB SWAP1 DUP2 AND SWAP2 DUP4 ADD SWAP2 SWAP1 SWAP2 MSTORE PUSH1 0x60 SWAP3 DUP4 ADD MLOAD AND SWAP2 DUP2 ADD SWAP2 SWAP1 SWAP2 MSTORE PUSH1 0x80 ADD SWAP1 JUMP JUMPDEST PUSH1 0x0 PUSH1 0xA0 DUP3 ADD SWAP1 POP DUP3 MLOAD DUP3 MSTORE PUSH1 0x1 PUSH1 0x1 PUSH1 0x80 SHL SUB PUSH1 0x20 DUP5 ADD MLOAD AND PUSH1 0x20 DUP4 ADD MSTORE PUSH1 0x40 DUP4 ADD MLOAD PUSH1 0x40 DUP4 ADD MSTORE PUSH1 0x60 DUP4 ADD MLOAD PUSH1 0x60 DUP4 ADD MSTORE PUSH1 0x80 DUP4 ADD MLOAD PUSH1 0x80 DUP4 ADD MSTORE SWAP3 SWAP2 POP POP JUMP JUMPDEST PUSH1 0x0 PUSH1 0xC0 DUP3 ADD SWAP1 POP DUP3 MLOAD DUP3 MSTORE PUSH1 0x20 DUP4 ADD MLOAD PUSH1 0x20 DUP4 ADD MSTORE PUSH1 0x40 DUP4 ADD MLOAD PUSH1 0x40 DUP4 ADD MSTORE PUSH1 0x60 DUP4 ADD MLOAD PUSH1 0x60 DUP4 ADD MSTORE PUSH1 0x80 DUP4 ADD MLOAD PUSH1 0x80 DUP4 ADD MSTORE PUSH1 0xA0 DUP4 ADD MLOAD PUSH1 0xA0 DUP4 ADD MSTORE SWAP3 SWAP2 POP POP JUMP JUMPDEST PUSH1 0x0 PUSH2 0x160 DUP3 ADD SWAP1 POP PUSH2 0x1467 DUP3 DUP5 MLOAD PUSH2 0x12C4 JUMP JUMPDEST PUSH1 0x20 DUP4 ADD MLOAD PUSH2 0x1479 PUSH1 0x20 DUP5 ADD DUP3 PUSH2 0x12C4 JUMP JUMPDEST POP PUSH1 0x40 DUP4 ADD MLOAD PUSH2 0x148C PUSH1 0x40 DUP5 ADD DUP3 PUSH2 0x12D8 JUMP JUMPDEST POP PUSH1 0x60 DUP4 ADD MLOAD PUSH2 0x149F PUSH1 0x60 DUP5 ADD DUP3 PUSH2 0x12D1 JUMP JUMPDEST POP PUSH1 0x80 DUP4 ADD MLOAD PUSH2 0x14B2 PUSH1 0x80 DUP5 ADD DUP3 PUSH2 0x12D1 JUMP JUMPDEST POP PUSH1 0xA0 DUP4 ADD MLOAD PUSH1 0xA0 DUP4 ADD MSTORE PUSH1 0xC0 DUP4 ADD MLOAD PUSH1 0xC0 DUP4 ADD MSTORE PUSH1 0xE0 DUP4 ADD MLOAD PUSH1 0xE0 DUP4 ADD MSTORE PUSH2 0x100 DUP1 DUP5 ADD MLOAD DUP2 DUP5 ADD MSTORE POP PUSH2 0x120 DUP1 DUP5 ADD MLOAD PUSH2 0x14F0 DUP3 DUP6 ADD DUP3 PUSH2 0x12C4 JUMP JUMPDEST POP POP PUSH2 0x140 SWAP3 DUP4 ADD MLOAD SWAP2 SWAP1 SWAP3 ADD MSTORE SWAP1 JUMP JUMPDEST PUSH1 0x1 PUSH1 0x1 PUSH1 0x80 SHL SUB SWAP4 SWAP1 SWAP4 AND DUP4 MSTORE PUSH1 0x20 DUP4 ADD SWAP2 SWAP1 SWAP2 MSTORE PUSH1 0x40 DUP3 ADD MSTORE PUSH1 0x60 ADD SWAP1 JUMP JUMPDEST PUSH3 0xFFFFFF SWAP2 SWAP1 SWAP2 AND DUP2 MSTORE PUSH1 0x20 ADD SWAP1 JUMP JUMPDEST SWAP1 DUP2 MSTORE PUSH1 0x20 ADD SWAP1 JUMP JUMPDEST SWAP4 DUP5 MSTORE PUSH1 0x1 PUSH1 0x1 PUSH1 0x80 SHL SUB SWAP3 SWAP1 SWAP3 AND PUSH1 0x20 DUP5 ADD MSTORE PUSH1 0x40 DUP4 ADD MSTORE PUSH1 0x60 DUP3 ADD MSTORE PUSH1 0x80 ADD SWAP1 JUMP JUMPDEST SWAP2 DUP3 MSTORE PUSH1 0x20 DUP3 ADD MSTORE PUSH1 0x40 ADD SWAP1 JUMP JUMPDEST PUSH1 0x1 PUSH1 0x1 PUSH1 0xA0 SHL SUB DUP2 AND DUP2 EQ PUSH2 0x1582 JUMPI PUSH1 0x0 DUP1 REVERT JUMPDEST POP JUMP INVALID LOG2 PUSH5 0x6970667358 0x22 SLT KECCAK256 NUMBER 0xAD DUP11 CREATE OR PUSH26 0x959CF9E2F67AD89FA90ABDAEBADE752425ECDC83C208AD4F13EA PUSH5 0x736F6C6343 STOP SMOD MOD STOP CALLER ","sha1":"dba9f436c42a985b245fad6908a58083199140fd","source":"// SPDX-License-Identifier: GPL-2.0-or-later\npragma solidity =0.7.6;\npragma abicoder v2;\n\nimport \"@uniswap/v3-core/contracts/interfaces/IUniswapV3Pool.sol\";\nimport \"@uniswap/v3-core/contracts/libraries/TickMath.sol\";\nimport \"@openzeppelin/contracts/token/ERC721/IERC721Receiver.sol\";\nimport \"@uniswap/v3-periphery/contracts/interfaces/ISwapRouter.sol\";\nimport \"@uniswap/v3-periphery/contracts/interfaces/INonfungiblePositionManager.sol\";\nimport \"@uniswap/v3-periphery/contracts/libraries/TransferHelper.sol\";\nimport \"@uniswap/v3-periphery/contracts/base/LiquidityManagement.sol\";\n\ncontract MockMint is IERC721Receiver {\n    address public constant DAI = 0xc7AD46e0b8a400Bb3C915120d284AafbA8fc4735;\n    // address public constant UNI = 0x1f9840a85d5aF5bf1D1762F925BDADdC4201F984;\n    address public constant USDC = 0xeb8f08a975Ab53E34D8a0330E0D34de942C95926;\n    uint24 public constant poolFee = 3000;\n\n    INonfungiblePositionManager public immutable nonfungiblePositionManager;\n\n    /// @notice Represents the deposit of an NFT\n    struct Deposit {\n        address owner;\n        uint128 liquidity;\n        address token0;\n        address token1;\n    }\n\n    /// @dev deposits[tokenId] => Deposit\n    mapping(uint256 => Deposit) public deposits;\n\n    constructor(INonfungiblePositionManager _nonfungiblePositionManager) {\n        nonfungiblePositionManager = _nonfungiblePositionManager;\n    }\n\n    // Implementing `onERC721Received` so this contract can receive custody of erc721 tokens\n    function onERC721Received(\n        address operator,\n        address,\n        uint256 tokenId,\n        bytes calldata\n    ) external override returns (bytes4) {\n        // get position information\n\n        _createDeposit(operator, tokenId);\n\n        return this.onERC721Received.selector;\n    }\n\n    function _createDeposit(address owner, uint256 tokenId) internal {\n        (\n            ,\n            ,\n            address token0,\n            address token1,\n            ,\n            ,\n            ,\n            uint128 liquidity,\n            ,\n            ,\n            ,\n\n        ) = nonfungiblePositionManager.positions(tokenId);\n\n        // set the owner and data for position\n        // operator is msg.sender\n        deposits[tokenId] = Deposit({\n            owner: owner,\n            liquidity: liquidity,\n            token0: token0,\n            token1: token1\n        });\n    }\n\n    /// @notice Calls the mint function defined in periphery, mints the same amount of each token.\n    /// For this example we are providing 1000 DAI and 1000 USDC in liquidity\n    /// @return tokenId The id of the newly minted ERC721\n    /// @return liquidity The amount of liquidity for the position\n    /// @return amount0 The amount of token0\n    /// @return amount1 The amount of token1\n    function mintNewPosition()\n        external\n        returns (\n            uint256 tokenId,\n            uint128 liquidity,\n            uint256 amount0,\n            uint256 amount1\n        )\n    {\n        // For this example, we will provide equal amounts of liquidity in both assets.\n        // Providing liquidity in both assets means liquidity will be earning fees and is considered in-range.\n        uint256 amount0ToMint = 1000;\n        uint256 amount1ToMint = 1000;\n\n        // transfer tokens to contract\n        TransferHelper.safeTransferFrom(\n            DAI,\n            msg.sender,\n            address(this),\n            amount0ToMint\n        );\n        TransferHelper.safeTransferFrom(\n            USDC,\n            msg.sender,\n            address(this),\n            amount1ToMint\n        );\n\n        // Approve the position manager\n        TransferHelper.safeApprove(\n            DAI,\n            address(nonfungiblePositionManager),\n            amount0ToMint\n        );\n        TransferHelper.safeApprove(\n            USDC,\n            address(nonfungiblePositionManager),\n            amount1ToMint\n        );\n\n        INonfungiblePositionManager.MintParams\n            memory params = INonfungiblePositionManager.MintParams({\n                token0: DAI,\n                token1: USDC,\n                fee: poolFee,\n                tickLower: TickMath.MIN_TICK,\n                tickUpper: TickMath.MAX_TICK,\n                amount0Desired: amount0ToMint,\n                amount1Desired: amount1ToMint,\n                amount0Min: 0,\n                amount1Min: 0,\n                recipient: address(this),\n                deadline: block.timestamp\n            });\n\n        // Note that the pool defined by DAI/USDC and fee tier 0.3% must already be created and initialized in order to mint\n        (tokenId, liquidity, amount0, amount1) = nonfungiblePositionManager\n            .mint(params);\n\n        // Create a deposit\n        _createDeposit(msg.sender, tokenId);\n\n        // Remove allowance and refund in both assets.\n        if (amount0 < amount0ToMint) {\n            TransferHelper.safeApprove(\n                DAI,\n                address(nonfungiblePositionManager),\n                0\n            );\n            uint256 refund0 = amount0ToMint - amount0;\n            TransferHelper.safeTransfer(DAI, msg.sender, refund0);\n        }\n\n        if (amount1 < amount1ToMint) {\n            TransferHelper.safeApprove(\n                USDC,\n                address(nonfungiblePositionManager),\n                0\n            );\n            uint256 refund1 = amount1ToMint - amount1;\n            TransferHelper.safeTransfer(USDC, msg.sender, refund1);\n        }\n    }\n\n    /// @notice Collects the fees associated with provided liquidity\n    /// @dev The contract must hold the erc721 token before it can collect fees\n    /// @param tokenId The id of the erc721 token\n    /// @return amount0 The amount of fees collected in token0\n    /// @return amount1 The amount of fees collected in token1\n    function collectAllFees(uint256 tokenId)\n        external\n        returns (uint256 amount0, uint256 amount1)\n    {\n        // Caller must own the ERC721 position, meaning it must be a deposit\n\n        // set amount0Max and amount1Max to uint256.max to collect all fees\n        // alternatively can set recipient to msg.sender and avoid another transaction in `sendToOwner`\n        INonfungiblePositionManager.CollectParams\n            memory params = INonfungiblePositionManager.CollectParams({\n                tokenId: tokenId,\n                recipient: address(this),\n                amount0Max: type(uint128).max,\n                amount1Max: type(uint128).max\n            });\n\n        (amount0, amount1) = nonfungiblePositionManager.collect(params);\n\n        // send collected feed back to owner\n        _sendToOwner(tokenId, amount0, amount1);\n    }\n\n    /// @notice A function that decreases the current liquidity by half. An example to show how to call the `decreaseLiquidity` function defined in periphery.\n    /// @param tokenId The id of the erc721 token\n    /// @return amount0 The amount received back in token0\n    /// @return amount1 The amount returned back in token1\n    function decreaseLiquidityInHalf(uint256 tokenId)\n        external\n        returns (uint256 amount0, uint256 amount1)\n    {\n        // caller must be the owner of the NFT\n        require(msg.sender == deposits[tokenId].owner, \"Not the owner\");\n        // get liquidity data for tokenId\n        uint128 liquidity = deposits[tokenId].liquidity;\n        uint128 halfLiquidity = liquidity / 2;\n\n        // amount0Min and amount1Min are price slippage checks\n        // if the amount received after burning is not greater than these minimums, transaction will fail\n        INonfungiblePositionManager.DecreaseLiquidityParams\n            memory params = INonfungiblePositionManager\n                .DecreaseLiquidityParams({\n                    tokenId: tokenId,\n                    liquidity: halfLiquidity,\n                    amount0Min: 0,\n                    amount1Min: 0,\n                    deadline: block.timestamp\n                });\n\n        (amount0, amount1) = nonfungiblePositionManager.decreaseLiquidity(\n            params\n        );\n\n        //send liquidity back to owner\n        _sendToOwner(tokenId, amount0, amount1);\n    }\n\n    /// @notice Increases liquidity in the current range\n    /// @dev Pool must be initialized already to add liquidity\n    /// @param tokenId The id of the erc721 token\n    /// @param amount0 The amount to add of token0\n    /// @param amount1 The amount to add of token1\n    function increaseLiquidityCurrentRange(\n        uint256 tokenId,\n        uint256 amountAdd0,\n        uint256 amountAdd1\n    )\n        external\n        returns (\n            uint128 liquidity,\n            uint256 amount0,\n            uint256 amount1\n        )\n    {\n        TransferHelper.safeTransferFrom(\n            deposits[tokenId].token0,\n            msg.sender,\n            address(this),\n            amountAdd0\n        );\n        TransferHelper.safeTransferFrom(\n            deposits[tokenId].token1,\n            msg.sender,\n            address(this),\n            amountAdd1\n        );\n\n        TransferHelper.safeApprove(\n            deposits[tokenId].token0,\n            address(nonfungiblePositionManager),\n            amountAdd0\n        );\n        TransferHelper.safeApprove(\n            deposits[tokenId].token1,\n            address(nonfungiblePositionManager),\n            amountAdd1\n        );\n\n        INonfungiblePositionManager.IncreaseLiquidityParams\n            memory params = INonfungiblePositionManager\n                .IncreaseLiquidityParams({\n                    tokenId: tokenId,\n                    amount0Desired: amountAdd0,\n                    amount1Desired: amountAdd1,\n                    amount0Min: 0,\n                    amount1Min: 0,\n                    deadline: block.timestamp\n                });\n\n        (liquidity, amount0, amount1) = nonfungiblePositionManager\n            .increaseLiquidity(params);\n    }\n\n    /// @notice Transfers funds to owner of NFT\n    /// @param tokenId The id of the erc721\n    /// @param amount0 The amount of token0\n    /// @param amount1 The amount of token1\n    function _sendToOwner(\n        uint256 tokenId,\n        uint256 amount0,\n        uint256 amount1\n    ) internal {\n        // get owner of contract\n        address owner = deposits[tokenId].owner;\n\n        address token0 = deposits[tokenId].token0;\n        address token1 = deposits[tokenId].token1;\n        // send collected fees to owner\n        TransferHelper.safeTransfer(token0, owner, amount0);\n        TransferHelper.safeTransfer(token1, owner, amount1);\n    }\n\n    /// @notice Transfers the NFT to the owner\n    /// @param tokenId The id of the erc721\n    function retrieveNFT(uint256 tokenId) external {\n        // must be the owner of the NFT\n        require(msg.sender == deposits[tokenId].owner, \"Not the owner\");\n        // transfer ownership to original owner\n        nonfungiblePositionManager.safeTransferFrom(\n            address(this),\n            msg.sender,\n            tokenId\n        );\n        //remove information related to tokenId\n        delete deposits[tokenId];\n    }\n}\n","sourcePath":"contracts/MockMint.sol","type":"contract","deployment":{"address":"0xB4BFBB05C3C08d15b15e435231adeA429767b261","chainid":"4","blockHeight":11046500}}